:100000000C94DC050C94F9050C94F9050C94F90595
:100010000C94F9050C94F9050C94F9050C94F90568
:100020000C94F9050C94F9050C94F9050C94FB0556
:100030000C94F9050C94F9050C94F9050C94F90548
:100040000C94F9050C94F9050C94F9050C94F90538
:100050000C94F9050C94F9050C94F9050C94F90528
:100060000C94F9050C94F905000000000000005FF5
:1000700000000007000700147F147F14242A7F2A41
:10008000122313086462364955225000050300000C
:10009000001C2241000041221C00082A1C2A0808DA
:1000A000083E0808005030000008080808080060F2
:1000B00060000020100804023E5149453E00427F86
:1000C000400042615149462141454B311814127F8D
:1000D0001027454545393C4A494930017109050316
:1000E0003649494936064949291E0036360000007E
:1000F000563600000008142241141414141441222E
:100100001408000201510906324979413E7E11115D
:10011000117E7F494949363E414141227F4141227A
:100120001C7F494949417F090901013E4141513242
:100130007F0808087F00417F41002040413F017F48
:10014000081422417F404040407F0204027F7F0428
:1001500008107F3E4141413E7F090909063E415159
:10016000215E7F09192946464949493101017F012C
:10017000013F4040403F1F2040201F7F2018207F2C
:100180006314081463030478040361514945430070
:10019000007F4141020408102041417F0000040219
:1001A0000102044040404040000102040020545439
:1001B00054787F48444438384444442038444448C0
:1001C0007F3854545418087E090102081454543CD2
:1001D0007F0804047800447D40002040443D000036
:1001E0007F10284400417F40007C041804787C087C
:1001F00004047838444444387C1414140808141453
:10020000187C7C080404084854545420043F44409B
:10021000203C4040207C1C2040201C3C4030403C86
:1002200044281028440C5050503C4464544C440022
:100230000836410000007F00000041360800080831
:100240002A1C08081C2A0808000000000000000002
:10025000000000000000000000000000000000009E
:10026000000000000000000000000000000000008E
:1002700000000000000000000000008080C0C0C03E
:10028000E0E0E0E0E0E0E0E0E0E0E0E0E0E0C0C0AE
:10029000C08080000000000000000000000000009E
:1002A000000000000000000000000000000000004E
:1002B000000000000000000000000000000000003E
:1002C000000000000000000000000000000000002E
:1002D000000000000000000000000000000000001E
:1002E000000000000000000000000000000000000E
:1002F0000080C0E0F0F8FCFCFEFFFFFFFFFFFFFF07
:10030000FFFFFFFFFFFFFFFFFFFFFFFFFFFFFFFFFD
:10031000FFFFFFFFFFFEFCFCF8F0E0C080000000E4
:1003200000000000000000000000000000000000CD
:1003300000000000000000000000000000000000BD
:1003400000000000000000000000000000000000AD
:10035000000000000000000000000000000000009D
:100360000000000000000000000000000080F0FC21
:10037000FEFFFFFFFFFFFFFFFFFFFFFFFFFFFFFF8E
:10038000FFFFFFFFFFFFFFFFFFFFFFFFFFFFFFFF7D
:10039000FFFFFFFFFFFFFFFFFFFFFFFFFFFEFCF080
:1003A000C00000000000000000000000000000008D
:1003B000000000000000000000000000000000003D
:1003C000000000000000000000000000000000002D
:1003D000000000000000000000000000000000001D
:1003E000000000000000000000000000FCFFFFFF14
:1003F000FFFFFFFFFFFFFFFFFFFFFFFFFFFFFF1FED
:1004000007030101000000000000000103071FFFB7
:10041000FFFFFFFFFFFFFFFFFFFFFFFFFFFFFFFFEC
:10042000FFFC0000000000000000000000000000D1
:1004300000000000000000000000000000000000BC
:1004400000000000000000000000000000000000AC
:10045000000000000000000000000000000000009C
:100460000000000000000000000000001FFFFFFF70
:10047000FFFFFFFFFFFFFFFFFFFFFFFFFFFFFFFC8F
:10048000F0E0C08080000000000080C0C0F0FCFFF1
:10049000FFFFFFFFFFFFFFFFFFFFFFFFFFFFFFFF6C
:1004A000FF3F00000000000000000000000000000E
:1004B000000000000000000000000000000000003C
:1004C000000000000000000000000000000000002C
:1004D000000000000000000000000000000000001C
:1004E0000000000000000000000000000001071FE5
:1004F0007FFFFFFFFFFFFFFFFFFFFFFFFFFFFFFF8C
:10050000FFFF7F0F0300000000010F3FFFFFFFFF11
:10051000FFFFFFFFFFFFFFFFFFFFFFFFFF7F1F0743
:1005200001000000000000000000000000000000CA
:1005300000000000000000000000000000000000BB
:1005400000000000000000000000000000000000AB
:10055000000000000000000000000000000000009B
:10056000000000000000000000000000000000008B
:1005700000000103070F1F3F3F7FFFFFFFFFFF7FCB
:100580000F0300000000000000000000010F3FFF0B
:10059000FFFFFFFF7F7F3F1F0F07030100000000E9
:1005A000000000000000000000000000000000004B
:1005B000000000000000000000000000000000003B
:1005C000000000000000000000000000000000002B
:1005D000000000000000000000000000000000001B
:1005E000000000000000000000000000000000000B
:1005F00000000000000000000000000000010100F9
:1006000000000000000000000000000000000001E9
:1006100001010000000000000000000000000000D8
:1006200000000000000000000000000000000000CA
:1006300000000000000000000000000000000000BA
:10064000000000000000000000E0F0380C0C0C0C72
:1006500038F8C000001F7FE080808080E0FF1F002E
:100660000000000101010101000000000010181845
:10067000FCFC00000000000000000000FFFF000084
:100680000000000000000000010100000000000068
:1006900000081C0C0C0C0C8CF8F0000000F0F89C0E
:1006A0008C86868383800000000101010101010125
:1006B0000101000000081C0C0C0C0C8CF8F0000070
:1006C0000080C080818383C7FF7C0000000001019F
:1006D000010101010000000000000080C07038FC32
:1006E000FC000000001C1E1B111810FFFF1018005A
:1006F0000000000000000001010000000000F4FC08
:100700001C0C0C0C0C0000000080C383838383C787
:10071000FE7800000000000101010101000000005E
:1007200000C0F0781C0C0C0C08000000003FFFC358
:10073000838383C3FE7C00000000000101010101EE
:1007400000000000000C0C0C0C8CCC7C3C0C00005D
:10075000000080F07C0F0300000000000000010199
:10076000000000000000000000F0F81C0C0C0C0C55
:10077000F8F0000000F8FF8F0706068FFFF8000072
:1007800000000103030303010100000000F0F81C56
:100790000C0C0C1CF8E000000001878E8C8C8CEE99
:1007A0007F1F0000000001010101010000000000A6
:1007B000000000000000005F0000000700070014B8
:1007C0007F147F14242A7F2A122313086462364977
:1007D0005522500005030000001C22410000412268
:1007E0001C00082A1C2A0808083E0808005030008F
:1007F00000080808080800606000002010080402D3
:100800003E5149453E00427F4000426151494621E8
:1008100041454B311814127F1027454545393C4A54
:1008200049493001710905033649494936064949A4
:10083000291E00363600000056360000000814223B
:100840004114141414144122140800020151090621
:10085000324979413E7E1111117E7F494949363E28
:10086000414141227F4141221C7F494949417F0941
:100870000901013E414151327F0808087F00417F54
:1008800041002040413F017F081422417F40404009
:10089000407F0204027F7F0408107F3E4141413EB9
:1008A0007F090909063E4151215E7F091929464603
:1008B0004949493101017F01013F4040403F1F202C
:1008C00040201F7F2018207F6314081463030478DE
:1008D0000403615149454300007F4141020408106F
:1008E0002041417F0000040201020440404040409A
:1008F000000102040020545454787F48444438389E
:1009000044444420384444487F3854545418087EA2
:10091000090102081454543C7F0804047800447D03
:1009200040002040443D00007F10284400417F40AB
:10093000007C041804787C08040478384444443863
:100940007C14141408081414187C7C080404084847
:1009500054545420043F4440203C4040207C1C2000
:1009600040201C3C4030403C44281028440C50504F
:10097000503C4464544C44000836410000007F0061
:1009800000004136080008082A1C08081C2A08082C
:100990000600000000000000000F00000F00000F24
:1009A00000000F0000000000000000000000000038
:1009B0000000000000000000000000000000070030
:1009C000001E00E01F00FF1FF8FF03FF1F00FF01D4
:1009D000000F000000000000000000000000000008
:1009E0000000000000000000000000000E000000F9
:1009F000C07F00F8FF01FCFF07FCFF073E800F0EE1
:100A0000000E0E000E0E000E1E800FFCFF07FCFFF6
:100A100007F8FF01C07F000000000E00000070001A
:100A20000E38000E38000E1C000E0E000EFEFF0FDA
:100A3000FEFF0FFEFF0FFEFF0F00000E00000E0076
:100A4000000E00000E0000000E00000060000F7895
:100A5000800F7CC00F7CE00F1EF00F0EF80E0E7C96
:100A60000E0E3E0E1E1F0EFE0F0EFC070EF8030E9E
:100A7000F0010E0000000E000000308001388003FD
:100A80003C80073C800F1E000F0E0E0E0E0E0E0E49
:100A90000E0E1E1F0FFEFF0FFCFB07FCF903F0E01C
:100AA000010000000F00000000F00000F80000FE50
:100AB0000080EF00C0E700F0E1007CE0003EE000D5
:100AC000FEFF0FFEFF0FFEFF0FFEFF0F00E0000016
:100AD000E0000E000000008001F88703FE8707FE9B
:100AE000870FFE070F0E030E8E030E8E030E8E076A
:100AF0000F8EFF070EFF070EFE0300FC0000000034
:100B00000E000000C07F00F0FF01F8FF07FCFF07A8
:100B10003E0E0F0E070E0E070E0E070E1E0F0F3E97
:100B2000FF0F3CFE0738FE0330F8010000000E0006
:100B300000000E00000E00000E00000E000F0EE080
:100B40000F0EF80F0EFE0F8EFF00CE0F00FE0300FB
:100B5000FE00003E00001E00000000000E0000002D
:100B6000F0E001F8FB03FCFB07FEFF0F1E1F0F0E5A
:100B70000E0E0E0E0E0E0E0E1E1F0FFEFF0FFCFBB6
:100B800007FCFB03F0E0010000000E000000F08312
:100B900001F88703FC8F07FE9F0F1E1E0F0E1C0E11
:100BA0000E1C0E0E1C0E1E8E0FFCFF07FCFF03F822
:100BB000FF01C07F0000000011241FBECFEFD8E06E
:100BC000DEBFCDBF11E0A0E0B1E0E0EFF6E302C090
:100BD00005900D92AE36B107D9F713E0AEE6B1E05D
:100BE00001C01D92A937B107E1F70E9422060C94BB
:100BF000761B0C9400001F920F920FB60F921124D7
:100C00008F9380916E018F5F80936E01823061F4CB
:100C1000809170018F5F8093700110926E018091BE
:100C20006F018F5F80936F0180916F01833021F49A
:100C30001092700110926F018F910F900FBE0F9064
:100C40001F9018952F923F924F925F926F927F92D2
:100C50008F929F92AF92BF92CF92DF92EF92FF92CC
:100C60000F931F93DF93CF930F92CDB7DEB7529AB6
:100C70002A9A8AB18B798AB98BB184668BB986EF4F
:100C800094E090938900809388008091810088602F
:100C90008093810080916F00826080936F008091CB
:100CA00081008360809381008AE26CE042E021E071
:100CB0000E94730E78940E9418090E94F3080E9403
:100CC000480988E690E065E047E020E20FE70E94EF
:100CD000D31443E2E42E3CE0D32E1AE2FF242AE0B0
:100CE000C22E81E089832224239433243394442424
:100CF00043945524539466246394772473948824EE
:100D0000839499249394AA24A394BB24B3944E99D6
:100D100004C0EA9411F492E0E92E4D9906C0E394E0
:100D200094E49E1510F483E4E82EFF2031F48091C2
:100D30007001813051F4D39408C0A1E0FA1629F46F
:100D400080917001813009F4DA94CC2031F48091E3
:100D50007001813051F4115008C0B1E0CB1629F474
:100D600080917001813009F41F5F6D2D70E0683251
:100D70007105B4F02E2D30E0412F50E0C9010496EA
:100D8000841795076CF4265F3F4F2417350744F00E
:100D9000FF2031F46A3271057CF4FF24F3940CC017
:100DA000E1E0FE1631F4FF24F2E0FD1510F4FF241B
:100DB000F3946832710594F0212F30E08E2D90E08D
:100DC00005968217930754F01E1540F0FF2031F46A
:100DD0006A3271051CF4FF24F3941EC0133018F41A
:100DE000CC24C3941AC02E2D30E0412F50E0C9010D
:100DF00009968417950774F4215F3F4F2417350730
:100E00004CF06832710534F0FF2021F46A3271052C
:100E10000CF441C0123508F0CC24653071050CF09B
:100E20003EC0143008F42DC1812F90E041970CF0A2
:100E300028C18981813009F023C1FF2421C1812F7C
:100E400090E081970CF020C191E0291609F4FF246D
:100E500022241AC1812F90E0C1970CF018C1A1E0A3
:100E60003A1609F4FF24332412C1812F90E0813413
:100E700091050CF00FC1B1E04B1609F4FF24442496
:100E800009C1812F90E0813591056CF4E1E05E1697
:100E900009F016C114C1FF24F394CC24C3946A3022
:100EA00071050CF045C0143008F4F9C0812F90E0B2
:100EB00009970CF0F4C0F1E06F1609F0EFC0FF24C1
:100EC000EDC0812F90E049970CF0ECC081E07816DE
:100ED00009F4FF247724E6C0812F90E089970CF075
:100EE000E4C091E0891609F4FF248824DEC0812F34
:100EF00090E0C9970CF0DCC0A1E09A1609F4FF2439
:100F00009924D6C0812F90E0893491050CF0D3C08C
:100F1000B1E0AB1609F4FF24AA24CDC0812F90E0E4
:100F2000813591052CF4E1E0BE1609F4FF24BB24C1
:100F3000F981FF23A9F4222099F4332089F4442075
:100F400079F4552069F4662059F4772049F4882013
:100F500039F4992029F4AA2019F4BB2009F469C0B6
:100F60006E3271050CF065C00E94E00884E062E01A
:100F70004CE024E009810E94D01084E162E04CE062
:100F800024E0022D0E94D01084E262E04CE024E0D4
:100F9000032D0E94D01084E362E04CE024E0042D95
:100FA0000E94D01084E462E04CE024E0052D0E9411
:100FB000D01084E067E044E024E0062D0E94D010C9
:100FC0008CE067E04CE024E0072D0E94D0108CE11B
:100FD00067E04CE024E0082D0E94D0108CE267E02E
:100FE0004CE024E0092D0E94D0108CE367E04CE037
:100FF00024E00A2D0E94D0108CE467E044E024E055
:101000000B2D0E94D0108E2D6AE24FE023E001E00C
:101010000E94D010812F6D2D42E021E00E94730EBE
:1010200080E060E044E52FE20E9467100E944809DA
:101030006ECE0E94E00800D000D000D0EDB7FEB721
:101040003196ADB7BEB711961C92118280E091E047
:1010500093838283148215820E944218EDB7FEB7F3
:1010600036960FB6F894FEBF0FBEEDBF03E011E059
:1010700088E164E1402F0E945A150E944809F8CF88
:101080001982143108F0DBCE143208F0E3CE1433A9
:1010900008F0EBCE143408F0F4CE05CF66241C30F3
:1010A00008F00FCF1C3108F017CF1C3208F01FCF0B
:1010B0001C3308F027CF1C3408F030CF39CFFF2481
:1010C0005524F1CE982F843508F093E5443508F087
:1010D00043E5603308F06FE2203308F02FE2E0913F
:1010E0007003F09171038081981708F490838281D6
:1010F000841708F442838181681708F4618383812F
:10110000821708F423830895E0917003F09171032E
:1011100083E5808312828FE2818313820895E091B8
:101120007003F091710383E5808312828FE28183E3
:1011300013820895E0917003F0917103108283E5AA
:10114000828311828FE28383089590936F0380934B
:101150006E0370937103609370030895089540E0E7
:1011600050E020E030E064E580916E0390916F03E1
:101170004530510581F0DC01A20FB31F2C5A3F4FBF
:10118000FC01E20FF31F2455304084E501900D92DD
:101190008150E1F707C08C559E4FDC01862F1D92D0
:1011A0008A95E9F74F5F5F4F2C5A3F4F4630510504
:1011B000D9F680E060E043E52FE20E9462080895DE
:1011C000E0916E03F0916F0388EF91E0DF019C01E5
:1011D0001D9221503040E1F780E060E043E52FE2CE
:1011E0000E9462080895E0916E03F0916F0388EF0A
:1011F00091E0DF019C011D9221503040E1F780E039
:1012000060E043E52FE20E9462080E9448090895C9
:1012100028988EBD0DB407FEFDCF289A0895289812
:101220005F9880EA9FE00197F1F75F9A289A089506
:10123000209A239A209A259A209A219A579A289A96
:1012400080E58CBD1DBC0E94360986E791E062E70F
:1012500071E00E94A5080E94F3080895299A0E944F
:101260000809089529980E94080908950E940F0905
:1012700081E20E94320982E10E9432098CEB0E94D5
:10128000320980E20E9432098CE00E9432090895FE
:10129000EF92FF920F931F93CF93DF9300E020E034
:1012A00030E0C0E0D0E0E0917003F091710388E09D
:1012B000E82EF12CE20EF31E818190E08E159F0541
:1012C00054F5838190E08217930764F1802F806446
:1012D0000E943209E0917003F0917103808180686F
:1012E0000E943209E0917003F091710310810CC0EB
:1012F000E0916E03F0916F03EC0FFD1FE10FF11D04
:1013000080810E942E091F5FE0917003F0917103AC
:101310008281811768F70F5FCC5ADF4F063011F0DA
:101320009701C1CF0E948408DF91CF911F910F9147
:10133000FF90EF90089580680E94320908958630EA
:1013400010F085E401C080640E943209089580E2B3
:101350000E94320908950E94F30884E20E94320933
:1013600008951F93182F81E20E943209812F80680F
:101370000E94320980E20E9432098CE00E94320908
:101380001F910895282F50E070E0681B7109469F57
:10139000C001479F900D569F900D11246FEF70E094
:1013A0000E94B117822F860F08952F923F925F926D
:1013B0006F927F928F929F92AF92BF92CF92DF9265
:1013C000EF92FF920F931F93DF93CF930F92CDB7BE
:1013D000DEB7882EB62E942EC22E502E01E00E942B
:1013E0006710DD24D3940C2D10E0380108946108B7
:1013F0007108292C332408942108310812C08F2D3C
:101400008F5F6A2D0E94B30D482F8F2D6A2D0E9489
:10141000340EE394F3948E2D90E0821593057CF3C3
:10142000D3948D2D90E08615970534F4F82CEE2496
:10143000E394AD2CAB0CEECF03501040852D90E023
:101440009C01029FC001039F900D129F900D1124DB
:101450006FEF70E00E94B117262F0F5F1F4F862F8E
:1014600090E08017910714F02C2D23506C2D6B0DFC
:10147000982D9250990D162F121B62501250892FE1
:10148000492F212F01E099830E942B111150B39411
:101490009981892F612F492F2B2D00E00E942B115C
:1014A0000E9448090F90CF91DF911F910F91FF90FB
:1014B000EF90DF90CF90BF90AF909F908F907F90F4
:1014C0006F905F903F902F9008957F928F929F92A0
:1014D000AF92BF92CF92DF92EF92FF920F931F9342
:1014E000782E862E942EA22EB02EFE2CEE2011F4F5
:1014F000FF24F39410E008C0872D682D492D2A2D74
:101500000B2D0E94D5091F5F1F15B0F3C114D10424
:1015100009F441C0B60180E090E00E9498165B019A
:101520006C0120E030E04AE755E40E9426177B0179
:101530008C0120E030E040E85FE30E9468168823D9
:101540001CF461E070E024C0C801B70120E03FEF67
:101550004FE757E40E9422171816B4F4C601B501EC
:1015600020E030E040E251E40E9426170E946C1611
:1015700080E991E005C0FC013197F1F761507040BE
:1015800061157105C1F707C0C801B7010E946C164B
:10159000CB010197F1F71F910F91FF90EF90DF9032
:1015A000CF90BF90AF909F908F907F900895DF92E3
:1015B000EF92FF920F931F93E82EF62ED42E122F48
:1015C000402F622F6250409580E00E94C209F80EC1
:1015D000181B12508E2D6F2D4D2D212F01E00E94D2
:1015E000D0101F910F91FF90EF90DF900895CF9250
:1015F000DF92EF92FF920F931F93C82ED62EE42E08
:10160000122FF02E01E00E946710612F6250F094BB
:1016100080E04F2D0E94C209682F6F5F6D0D9EEF15
:10162000E90E181B12508C2D8F5F4E2D212F0E941A
:10163000D0101F910F91FF90EF90DF90CF90089501
:10164000EF92FF920F931F93F82EE62E122F233066
:1016500060F080E0642F402F0E94C209482F8F2D38
:101660006E2D212F01E00E94D0101F910F91FF904D
:10167000EF900895CF92DF92EF92FF920F931F9316
:10168000C82EE62E142FF22ED02E82E08217A0F460
:101690008C2D01E00E946710125080E0612F4D2DCB
:1016A0000E94C209482FE3948EEFF80E8C2D8F5FB5
:1016B0006E2D2F2D0E94D0101F910F91FF90EF9053
:1016C000DF90CF9008950F939093730380937203EC
:1016D000609374034093750320937603009377031C
:1016E00081E0809378030F910895EF920F93909388
:1016F0007303809372036093740340937503209384
:10170000760300937703E09278030F91EF900895AA
:101710002F923F924F925F926F927F928F929F9201
:10172000AF92BF92CF92DF92EF92FF920F931F93EF
:10173000DF93CF93CDB7DEB763970FB6F894DEBFD4
:101740000FBECDBF482EE62E342F5091760345179D
:1017500020F080917703841708F43EE280917803AB
:10176000882309F058C0042DFF24432E5524602EF1
:1017700077248E2C992449C04F2D50E08091760318
:101780009201281B3109892F90E0BC01269FC001DE
:10179000279F900D369F900D1124840F951FE09187
:1017A0007203F0917303E80FF91FE4911E2D2224B8
:1017B00033245A01A60CB71CCE2EDD2474E5A716DF
:1017C000B1040CF070C1C101880D991DC0970CF0D7
:1017D0006AC1C601022C02C0959587950A94E2F76A
:1017E00080FF04C0802F612F41E003C0802F612F54
:1017F00040E00E94340E0894211C311C1F5F88E0D9
:1018000028163104D9F6F3940F5F90917403F916FA
:1018100008F4B2CF49C1813009F09CC02091750312
:10182000822F90E087709070269526952695892BBB
:1018300009F02F5F2C83809174039C81989F802DE9
:1018400011248F5F90E0232F30E0251B3109DC014C
:10185000A29FC001A39F900DB29F900D1124E09113
:101860007203F0917303E80FF91FB491BB833C81BD
:10187000232F30E03A8329833F010894611C711CB7
:10188000542C88249924E98A442D50E05C874B87A6
:101890004FC0F5018491E88686011B8A1A8A282E9A
:1018A000332429853A85243531050CF0FCC02A897A
:1018B0008A899B898E0D9F1DC0970CF0F4C0809182
:1018C000750390E00817190794F4C101022E02C0B5
:1018D000959587950A94E2F76885620F80FF03C0AB
:1018E000852D41E002C0852D40E00E94340E4A89DA
:1018F0005B894F5F5F4F5B8B4A8B0F5F1F4F483099
:10190000510579F6439468E070E0E60EF71EC60EC6
:10191000D71E0894A11CB11C7C81471608F4B9CFCE
:101920000894811C911C89819A81680E791E5394B8
:101930009B81891608F0B8C0898990E07C01530129
:101940004424CC24DD24AB85BC85A80DB91DBA8701
:10195000A987E2CF823009F0A6C0B0907503B69493
:10196000B694B694B39440917403232F30E0251BB2
:101970003109B49E802D112490E0FC012E9FC001FE
:101980002F9F900D3E9F900D112480907203909098
:101990007303880E991E542E30E050E041505040A1
:1019A000642F631BE0E020E090E007C0892F861BD6
:1019B000F401E80FF11DE0812F5F960F2B15B0F3B6
:1019C000EE2321F45A9411F03F5FEACFFF246624FE
:1019D000CC24DD24242D30E0388B2F8758C08A2D6D
:1019E00090E02091740330E04E815F81429FF001CE
:1019F000439FF00D529FF00D1124E80FF91FE80DE1
:101A0000F91DE49186011B8A1A8A6F857889680F0F
:101A1000791F7E876D872E2E33248D859E85843594
:101A200091050CF040C02A898A899B898E0D9F1DE3
:101A3000C097CCF58091750390E00817190794F4CE
:101A4000C101022E02C0959587950A94E2F76D8137
:101A5000620F80FF03C0872D41E002C0872D40E068
:101A60000E94340EEA89FB893196FB8BEA8B0F5F6B
:101A70001F4F389791F6A3947394A51408F4AFCF31
:101A8000639428E030E0E20EF31EC20ED31E6B1406
:101A900010F0952D09C0462D50E05F834E83ED82F6
:101AA000742CAA24EACF90E0892F63960FB6F8949D
:101AB000DEBF0FBECDBFCF91DF911F910F91FF9081
:101AC000EF90DF90CF90BF90AF909F908F907F90DE
:101AD0006F905F904F903F902F9008950F931F93BA
:101AE000CF93DF93182F062FEA01862F90E04091C5
:101AF00075032FE230E0241B31092817390764F001
:101B0000FE0121964491442339F0812F602F0E94D9
:101B1000880B8F5F180FF4CFDF91CF911F910F913A
:101B200008950F931F93CF93DF93182F062FEA0189
:101B3000862F90E0409175032FE230E0241B31099D
:101B40002817390744F40AC0812F602F0E94880BA0
:101B50008F5F180F219648814423B1F7DF91CF9111
:101B60001F910F910895482F8435F0F46033E0F40D
:101B7000862F86958695869590E024E530E0829FB5
:101B8000F001839FF00D929FF00D1124E40FF11DE1
:101B9000EA58FE4F808190E0677002C09595879566
:101BA0006A95E2F78170089580E00895BC01809104
:101BB0006E0390916F0348EF51E00E9439180E9424
:101BC0009A0808950F931F93082F162F8435E8F471
:101BD0006033D8F4402F212F0E946208E12FE69550
:101BE000E695E69584E5E89FF0011124E00FF11DEC
:101BF000EA58FE4F177081E090E002C0880F991FED
:101C00001A95E2F72081282720831F910F910895CC
:101C1000DF92EF92FF920F931F93CF93DF93D62E15
:101C2000082FE82EFF24E40EF11CC62FD0E0C20FCF
:101C3000D11D0BC0802F612F0E94E20D1F5F812FED
:101C400090E08C179D07B4F30F5F802F90E08E1506
:101C50009F0514F41D2DF3CFDF91CF911F910F91AC
:101C6000FF90EF90DF900895A82F762F8435D0F560
:101C70006033C0F5562F56955695569590E0262F11
:101C800030E04423A1F0E4E55E9FF0011124E80F69
:101C9000F91FEA58FE4F2770307081E090E002C0D3
:101CA000880F991F2A95E2F72081282B14C0E4E5BC
:101CB0005E9FF0011124E80FF91FEA58FE4F2770CC
:101CC000307081E090E002C0880F991F2A95E2F7FA
:101CD00080952081282320838A2F672F4A2F272F42
:101CE0000E94620808953F924F925F926F927F9296
:101CF0008F929F92AF92BF92CF92DF92EF92FF921C
:101D00000F931F93DF93CF9300D000D000D0CDB7B7
:101D1000DEB7B82EE62EF42E622E042F10E0641BE0
:101D2000480F2F2D2E0D8F190E9462088E2C99249A
:101D30002401401A510A6801C80CD91C08C08B2D17
:101D4000642D462D0E94340E0894411C511CC4146D
:101D5000D504ACF7DD24D394DF18000F111F402EFB
:101D60004194CF2CAA2400E010E083E0782E8E2D41
:101D700090E09C01215030403A832983FC01319648
:101D8000FC83EB8354C0D7FC04C0CA94F2E04F0E2E
:101D9000D40CA3948C2D992787FD90959401281B32
:101DA000390B3E832D837C01E80CF91C3A2C3B0C4B
:101DB0005B2C5A180FC0832D6D81462D0E94340E66
:101DC000852D6D81462D0E94340E8D819E81019658
:101DD0009E838D83ED81FE81EE16FF0664F72981D7
:101DE0003A81201B310B3E832D83EB80FC80E00E7B
:101DF000F11E3C2C3B0C5B2C5C180FC0832D6D81BD
:101E0000462D0E94340E852D6D81462D0E94340E84
:101E10008D819E8101969E838D83ED81FE81EE16DC
:101E2000FF0664F7D70C0F5F1F4FF2E07F0EAC1474
:101E30000CF4A9CF26960FB6F894DEBF0FBECDBF27
:101E4000CF91DF911F910F91FF90EF90DF90CF9096
:101E5000BF90AF909F908F907F906F905F904F90CA
:101E60003F9008957F928F929F92AF92BF92CF92B0
:101E7000DF92EF92FF920F931F93A82EB62EC22EE1
:101E800099249394941A842F90E0880F991F782EA8
:101E90007194D42EEA2CE41A062F041BF42EFA0CAB
:101EA000142F160F8E2D602F4F2D212F0E946208A8
:101EB0008A2D612F4C2D0E94340E8A2D602F4C2DBF
:101EC0000E94340E8F2D6B2D4C2D0E94340E8E2DC2
:101ED0006B2D4C2D0E94340EEE2423E0822E42C046
:101EE00097FC04C0DA9482E0780E970CE394980C87
:101EF000FE2CFA0C1D2D1B0D8F2D612F4C2D0E94D9
:101F0000340E0A2D0E19802F612F4C2D0E94340E95
:101F10001B2D1D198F2D612F4C2D0E94340E802FEB
:101F2000612F4C2D0E94340EFD2CFA0C1E2D1B0D22
:101F30008F2D612F4C2D0E94340E0A2D0D19802FEC
:101F4000612F4C2D0E94340E1B2D1E198F2D612FD9
:101F50004C2D0E94340E802F612F4C2D0E94340E88
:101F600082E0880EED140CF4BBCF1F910F91FF900F
:101F7000EF90DF90CF90BF90AF909F908F907F9029
:101F800008952F923F924F925F926F927F928F921D
:101F90009F92AF92BF92CF92DF92EF92FF920F93F8
:101FA0001F93DF93CF9300D00F92CDB7DEB7B82E3B
:101FB000A62E442E2983902E8E2D5C2C002311F406
:101FC00099249394882309F481E000E010E0CB2C5D
:101FD000DD241601240C311C89808A0C682E77249C
:101FE00018C06A816A0D8E2D452D0E94340E8E2DEB
:101FF0006F2D452D0E94340E8A819B8101969B8313
:102000008A83FA94EA81FB81E615F70554F30F5FA2
:102010001F4FC8018C0D9D1D8215930534F4F82CBB
:102020001B821A82EB2CE00EECCF00E010E0CA2CF1
:10203000DD243601F9816F0E711C342C3B0C892C88
:10204000992418C08A818B0D6F2D452D0E94340E66
:102050008E2D6F2D452D0E94340E8A819B81019615
:102060009B838A83EA94EA81FB81E815F90554F39E
:102070000F5F1F4FC8018C0D9D1D8615970534F409
:10208000E32C1B821A82FA2CF00EECCF4B2D415020
:10209000440D2A2D2150F9812F0F8B2D6A2D0E947E
:1020A00062080F900F900F90CF91DF911F910F91C9
:1020B000FF90EF90DF90CF90BF90AF909F908F9068
:1020C0007F906F905F904F903F902F9008956F9208
:1020D0007F928F929F92AF92BF92CF92DF92EF92B8
:1020E000FF920F931F93CF93DF93E82EF62EA42E2B
:1020F000722EB02EC0E0D0E0C82EDD244601840E42
:10210000911CFA940F2D020FF3940DC01E2D1C0F7D
:10211000812F6F2D4B2D0E94340E812F602F4B2D60
:102120000E94340E2196CE018C0D9D1D88159905B7
:102130006CF3C0E0D0E0CF2CDD244601870C911C6D
:102140000E2D0150602E6A0C0DC01F2D1C0F8E2D00
:10215000612F4B2D0E94340E862D612F4B2D0E9436
:10216000340E2196CE018C0D9D1D881599056CF3BA
:102170000A0D2F2D2150270D8E2D6F2D402F0E94DF
:102180006208DF91CF911F910F91FF90EF90DF9048
:10219000CF90BF90AF909F908F907F906F90089559
:1021A0002F923F924F925F926F927F928F929F9267
:1021B000AF92BF92CF92DF92EF92FF920F931F9355
:1021C000CF93DF93D82EC62E442E322E202E00E041
:1021D00010E0A82EBB243501640E711CE62EFF24EE
:1021E0004701820E911C14C0C0E0D0E05D2C500E5F
:1021F00007C06C2D6C0F852D422D0E94340E219648
:10220000CE018E0D9F1D881599059CF30F5F1F4F02
:10221000C8018A0D9B1D8615970534F34D2D41503D
:10222000440D2C2D2150230D8D2D6C2D0E94620804
:10223000DF91CF911F910F91FF90EF90DF90CF90A2
:10224000BF90AF909F908F907F906F905F904F90D6
:102250003F902F9008959F92AF92BF92CF92DF92BE
:10226000EF92FF920F931F93F82EE62ED42E122F8B
:10227000902EAA2430E0261B310937FF03C0309589
:1022800021953F4F8D2D90E08F19910997FF03C045
:10229000909581959F4F8217930744F4AA24A394A5
:1022A0008E2DEF2CF82E812F1D2DD82EDF1430F41B
:1022B0008D2DDF2CF82E812F1E2DE82E8F2D6E2DCB
:1022C0004D2D212F0E946208CD2CCF18812F90E038
:1022D0008E19910997FF03C0909581959F4FB82E55
:1022E000E11610F00FEF01C001E01C2D169510C093
:1022F000AA2019F08E2D6F2D02C08F2D6E2D492D25
:102300000E94340E1B1917FF02C0E00E1C0DF3943F
:10231000DF1470F71F910F91FF90EF90DF90CF9037
:10232000BF90AF909F900895CF92DF92EF92FF926F
:102330000F931F93E82ED62E142FF22E0E946710B3
:102340001E0DFD0C8E2D8F5F6F2D412F2F2D0E94A6
:102350002B11D394812F6D2D412F2F2D0E942B11E6
:102360001F910F91FF90EF90DF90CF90089588E438
:1023700092E00E94D60D0E94480980917101882345
:10238000E1F31092710108950F931F93CF93DF93A0
:102390000E94F3080E94480940C080E060E042E3E8
:1023A00022E30C2F0E94D5098CE360E042E32EE18A
:1023B0000E94D5098CE363E24CE324E10E94D50935
:1023C000809171018823F9F46496CF3FD10529F3F8
:1023D00020F310E0012F009580E060E042E322E36B
:1023E0000E94D5098CE360E042E32EE1012F0E94B8
:1023F000D5098CE363E24CE324E10E94D509809186
:102400007101882339F010927101DF91CF911F91F2
:102410000F9108951C5E1430E9F6C0E0D0E0D5CFEE
:102420000F9380EB97E065E047E020E20FE70E9422
:10243000D3140E94E00880E060E048E051E00E9490
:1024400009160E944809809171018823E1F31092D6
:1024500071010F910895CF92EF920F93CF93DF9375
:1024600080EB97E065E047E020E20FE70E94D3149D
:102470000E94E00880E060E045E151E00E9409161A
:102480000E94480980ED97E020E931E0F901319799
:10249000F1F70197D9F7C0E9D1E00E94F30880E095
:1024A00060E044E622E301E00E94671080E069E01A
:1024B00044E251E00E9409160E94480988E893E12D
:1024C000FE013197F1F70197D9F7809171018823C7
:1024D00009F085C00E94F30880E069E043E351E021
:1024E0000E9409160E94480985E065E040E52EE15A
:1024F00003E056E0E52ECC24C3940E94C10F0E9455
:10250000480988E893E1FE013197F1F70197D9F77F
:1025100080917101882309F062C080E060E044E1AD
:1025200024E102E032E0E32ECC24C3940E94C10FE8
:102530000E94480988E893E1FE013197F1F701977D
:10254000D9F780917101882309F049C084E66AE0D7
:1025500044E124E105E095E0E92ECC24C3940E94F7
:10256000C10F0E94480988E893E1FE013197F1F715
:102570000197D9F780917101882389F50E94F308AA
:1025800080E069E048E451E00E94091680E060E0E4
:102590004DE22EE101E00E9494110E94480988E872
:1025A00093E1FE013197F1F70197D9F7809171011D
:1025B0008823A9F48FE565E04EE12EE101E00E9459
:1025C00094110E94480988E893E1FE013197F1F7E0
:1025D0000197D9F780917101882309F45ECF109299
:1025E0007101DF91CF910F91EF90CF900895AF924D
:1025F000BF92CF92DF92EF92FF920F93DF93CF9330
:10260000CDB7DEB72F970FB6F894DEBF0FBECDBFA4
:1026100080EB97E065E047E020E20FE70E94D314EB
:1026200000E27E010894E11CF11C7FE0A72EB12C92
:10263000AC0EBD1E60E9C62E61E0D62EF701008308
:102640000F5F07FD00E23196EA15FB05C1F71F8613
:10265000C7010E94591680917101882391F0109250
:1026600071012F960FB6F894DEBF0FBECDBFCF918C
:10267000DF910F91FF90EF90DF90CF90BF90AF90E0
:10268000089580E197E2F6013197F1F70197D9F7C4
:10269000D5CF0F931F93CF93DF9380E999E06FE03D
:1026A00045E12EE209E30E94630B1EE2809175036F
:1026B000181B00E0C0E9D1E016C0809171018823A9
:1026C000D1F40E94E00880E0602F4EE551E00E94C6
:1026D000910D0E94480980E293E0FE013197F1F7E5
:1026E0000197D9F70F5F011740F3012F1DC08091AB
:1026F0007101882339F010927101DF91CF911F9100
:102700000F9108950E94E00880E0602F42E651E0BA
:102710000E94910D0E94480980E293E0FE013197EA
:10272000F1F70197D9F70150002309F7DCCF8F9219
:102730009F92AF92BF92CF92DF92EF920F93DF936F
:10274000CF93CDB7DEB728970FB6F894DEBF0FBE94
:10275000CDBF19821A821B821C821D821E821F829B
:102760001886CC24DD245E010894A11CB11CF6E679
:102770008F2EF1E09F2E0E94E00888E496E06CE046
:1027800043E120E309E3E2E0EE2E0E94750B00D066
:1027900000D000D0EDB7FEB73196ADB7BEB71296F8
:1027A000BC92AE92119793828282D582C4820E949B
:1027B00042188DB79EB706960FB6F8949EBF0FBE0F
:1027C0008DBF80E060E0A5010E94910D0E94480944
:1027D0000894C11CD11C80917101882361F2109270
:1027E000710128960FB6F894DEBF0FBECDBFCF9112
:1027F000DF910F91EF90DF90CF90BF90AF909F90BF
:102800008F9008958F929F92AF92BF92DF92EF9236
:10281000FF920F931F93DF93CF93CDB7DEB7289727
:102820000FB6F894DEBF0FBECDBF19821A821B828D
:102830001C821D821E821F821886DD245E01089480
:10284000A11CB11C16E6812E11E0912E0E94E00819
:1028500080E999E06FE045E12EE209E30E94630B15
:10286000ED2CFF2400D000D000D0EDB7FEB731969C
:10287000ADB7BEB71296BC92AE9211979382828288
:10288000F582E4820E9442188DB79EB706960FB675
:10289000F8949EBF0FBE8DBF80E060E0A5010E944E
:1028A000910D8701000F111F000F111F8AE066E2D2
:1028B0004EE126E00E943A0BEE0CFF1C86E460E03D
:1028C00048E02EE10E2D0E94F70A0E944809D39499
:1028D00080917101882309F4B9CF10927101289673
:1028E0000FB6F894DEBF0FBECDBFCF91DF911F9121
:1028F0000F91FF90EF90DF90BF90AF909F908F90DF
:102900000895CF92DF92EF92FF920F931F93CF9390
:10291000DF9300E4C02E0FE1D02EC0EADFE00E947A
:10292000F3080E94291864E570E00E94B117E82EB0
:102930000E94291860E370E00E94B117F82E0E94EF
:10294000291862E370E00E94B117082F10E08E2D65
:102950006F2D412F21E00E94730E0E944809C6018D
:102960000197F1F71F5F011790F710E08E2D6F2D83
:10297000412F20E00E94730E0E944809CE0101976A
:10298000F1F71F5F011790F780917101882339F2E9
:1029900010927101DF91CF911F910F91FF90EF90F5
:1029A000DF90CF9008950F939093730380937203F9
:1029B0006093740340937503209376030093770329
:1029C000109278030F910895BF92CF92DF92EF9209
:1029D000FF920F931F93CF93DF93F82EE62E5FE2C3
:1029E000561708F45DC08091740390E08F0D911D1F
:1029F000843591050CF054C080917503883008F03F
:102A00004FC080917803882309F04AC080917603F3
:102A1000481720F080917703841708F44EE200E015
:102A2000C42EDD242FC0809176039601281B310926
:102A3000842F90E0AC01249FC001259F900D349F0E
:102A4000900D1124800F911DE0917203F09173039A
:102A5000E80FF91FE49110E0CE2FD0E00EC0612FF7
:102A60006E0DAE01012E02C0559547950A94E2F70E
:102A700041708B2D0E94340E1F5F809175031817D3
:102A800070F30F5FB02EBF0C40917403041758F21F
:102A90004F0D209175032E0D8F2D6E2D0E94620813
:102AA000DF91CF911F910F91FF90EF90DF90CF902A
:102AB000BF9008950F931F93CF93DF93082F262F76
:102AC000142F60917503683008F06AC08091760316
:102AD000481720F080917703841708F41EE2C22F74
:102AE000D0E0E62FF0E0319680E390E0BF010E9455
:102AF000B117C617D7070CF053C040917403842F49
:102B000090E0800F911D843591050CF049C0CE9F57
:102B1000B001CF9F700DDE9F700D1124400F2196E4
:102B2000CE9F9001CF9F300DDE9F300D1124219755
:102B3000802F0E94620884E590E0C89FD001C99F61
:102B4000B00DD89FB00D112450E0612F70E022C06D
:102B5000809176039B01281B3109892F90E0FC01AD
:102B60002E9FC0012F9F900D3E9F900D1124850F29
:102B7000911DE0917203F0917303E80FF91F8491A6
:102B8000E0916E03F0916F03EA0FFB1FE40FF11D5C
:102B900080835F5F452F400F909174035917C0F2F7
:102BA000DF91CF911F910F9108950F931F93CF93B2
:102BB000DF93182F062FEA0180917503883020F5E6
:102BC000FE01219644914423F9F0812F602F0E9449
:102BD0005A15809174038F5F180F815090E0810F18
:102BE000911D8435910514F00F5F10E0202F30E027
:102BF0006091750370E06F5F7F4F80E390E00E940B
:102C0000B11726173707E4F2DF91CF911F910F918B
:102C100008950F931F93CF93DF93182F062FEA0188
:102C200080917503883008F123C0812F602F0E94A6
:102C30005A15809174038F5F180F815090E0810FB7
:102C4000911D8435910514F00F5F10E0202F30E0C6
:102C50006091750370E06F5F7F4F80E390E00E94AA
:102C6000B1172617370724F4219648814423E9F643
:102C7000DF91CF911F910F910895682F70E083E04D
:102C8000660F771F8A95E1F780E043E528E00E9410
:102C9000080E08950F931F938C010E94AF0880E0E7
:102CA00065E0A8010E94D5150E9448091F910F9167
:102CB00008950F931F938C010E94AF0880E065E098
:102CC000A8010E9409160E9448091F910F910895BA
:102CD0006CD008F481E0089594D088F09F5790F06C
:102CE000B92F9927B751A0F0D1F0660F771F881F31
:102CF000991F1AF0BA95C9F712C0B13081F09BD074
:102D0000B1E0089598C0672F782F8827B85F39F011
:102D1000B93FCCF3869577956795B395D9F73EF48F
:102D200090958095709561957F4F8F4F9F4F089537
:102D3000E89409C097FB3EF4909580957095619555
:102D40007F4F8F4F9F4F9923A9F0F92F96E9BB270B
:102D50009395F695879577956795B795F111F8CF87
:102D6000FAF4BB0F11F460FF1BC06F5F7F4F8F4FF2
:102D70009F4F16C0882311F096E911C0772321F0E8
:102D80009EE8872F762F05C0662371F096E8862F80
:102D900070E060E02AF09A95660F771F881FDAF7D7
:102DA000880F9695879597F90895990F0008550F04
:102DB000AA0BE0E8FEEF16161706E807F907C0F0C1
:102DC00012161306E407F50798F0621B730B840BC9
:102DD000950B39F40A2661F0232B242B252B21F4A3
:102DE00008950A2609F4A140A6958FEF811D811D43
:102DF000089557FD9058440F551F59F05F3F71F0EB
:102E00004795880F97FB991F61F09F3F79F0879551
:102E10000895121613061406551FF2CF4695F1DFDA
:102E200008C0161617061806991FF1CF869571056A
:102E3000610508940895E894BB2766277727CB019E
:102E400097F90895B2DF08F48FEF08950BD078C09A
:102E500069D028F06ED018F0952309F05AC05FC0F1
:102E60001124EACFC6DFA0F3959FD1F3950F50E070
:102E7000551F629FF001729FBB27F00DB11D639F2C
:102E8000AA27F00DB11DAA1F649F6627B00DA11DD2
:102E9000661F829F2227B00DA11D621F739FB00D78
:102EA000A11D621F839FA00D611D221F749F3327E8
:102EB000A00D611D231F849F600D211D822F762F81
:102EC0006A2F11249F5750408AF0E1F088234AF07E
:102ED000EE0FFF1FBB1F661F771F881F91505040CA
:102EE000A9F79E3F510570F014C0A6CF5F3FECF3E9
:102EF000983EDCF3869577956795B795F795E795B6
:102F00009F5FC1F7FE2B880F911D9695879597F9C6
:102F1000089597F99F6780E870E060E008959FEF5B
:102F200080EC089500240A94161617061806090660
:102F3000089500240A94121613061406050608952F
:102F4000092E0394000C11F4882352F0BB0F40F4B7
:102F5000BF2B11F460FF04C06F5F7F4F8F4F9F4FF7
:102F6000089597FB092E07260AD077FD04D00CD0D0
:102F700006D000201AF4709561957F4F0895F6F7FA
:102F8000909581959F4F0895AA1BBB1B51E107C0E7
:102F9000AA1FBB1FA617B70710F0A61BB70B881FE9
:102FA000991F5A95A9F780959095BC01CD01089578
:102FB000A0E0B0E0EEEDF7E10C94251BEC01A88059
:102FC000B980CA80DB80A114B104C104D10441F4EA
:102FD00084E2A82E89EDB82E8BE5C82E87E0D82E86
:102FE000C601B5012DE133EF41E050E00E94021B24
:102FF00027EA31E440E050E00E94E31A7B018C01B3
:10300000C601B5012DE133EF41E050E00E94021B03
:10301000CA01B9012CEE34EF4FEF5FEF0E94E31AC3
:103020006E0D7F1D801F911F97FF04C0615070407F
:1030300080409048688379838A839B839B013F7794
:10304000C901CDB7DEB7EAE00C94411B0E94D81746
:10305000089589E691E00E94D8170895A0E0B0E0B5
:103060008093690190936A01A0936B01B0936C0106
:103070000895FB01DC0102C005900D9241505040C3
:10308000D8F70895AEE0B0E0E8E4F8E10C942B1B2B
:103090000D891E8986E08C831A8309838FEF9FE751
:1030A0009E838D839E01275E3F4FCE0101966F89DF
:1030B000788DA9010E9466182F813885020F131F91
:1030C000F80110822E96E4E00C94471BABE0B0E0D0
:1030D000ECE6F8E10C941D1B3C012B015A01FC01AC
:1030E00017821682838181FD03C06FEF7FEFC6C117
:1030F0009AE0892E1E010894211C311CF3012381C2
:10310000F20123FD859123FF81912F01882309F48A
:10311000B2C1853239F423FD859123FF81912F01BE
:10312000853229F490E0B3010E94591AE7CF982F15
:10313000FF24EE249924FFE1FF15D0F09B3269F0C3
:103140009C3228F4903259F0933291F40EC09D32A3
:1031500049F0903369F441E024C052E0F52A84E05C
:10316000F82A28C098E0F92A25C0E0E1FE2A22C00A
:10317000F7FC29C0892F80538A3070F4F6FE05C011
:10318000989C902C1124980E15C0E89CE02C1124DA
:10319000E80EF0E2FF2A0EC09E3229F4F6FC6BC165
:1031A00040E4F42A07C09C3619F450E8F52A02C01E
:1031B000983649F4F20123FD959123FF91912F0157
:1031C000992309F0B8CF892F8554833018F08052A5
:1031D000833038F444E050E0A40EB51E5FE3598319
:1031E0000FC0933631F0933779F0933509F056C01C
:1031F00020C0F5018081898342E050E0A40EB51E15
:10320000610101E010E012C0F501C080D180F6FC40
:1032100003C06FEF7FEF02C0692D70E042E050E025
:10322000A40EB51EC6010E944E1A8C015FE7F5225E
:1032300014C0F501C080D180F6FC03C06FEF7FEFB2
:1032400002C0692D70E042E050E0A40EB51EC60138
:103250000E94431A8C0150E8F52AF3FE07C01AC0F9
:1032600080E290E0B3010E94591AEA948E2D90E01A
:1032700008171907A8F30EC0F601F7FC8591F7FEB1
:1032800081916F0190E0B3010E94591AE110EA9414
:10329000015010400115110579F7EAC0943611F07C
:1032A000993669F5F7FE08C0F50120813181428128
:1032B000538184E090E00AC0F501808191819C01F6
:1032C000442737FD4095542F82E090E0A80EB91EA8
:1032D0009FE6F92257FF09C05095409530952195FA
:1032E0003F4F4F4F5F4FE0E8FE2ACA01B901A101ED
:1032F0002AE030E00E94851AD82ED21840C09537B7
:1033000029F41F2D1F7E2AE030E01DC01F2D197FDC
:103310009F3661F0903720F4983509F0ACC00FC0AB
:10332000903739F0983709F0A6C004C028E030E0A3
:103330000AC0106114FD146020E130E004C014FDE7
:10334000166020E132E017FF08C0F501608171814D
:103350008281938144E050E008C0F5018081918131
:10336000BC0180E090E042E050E0A40EB51EA10157
:103370000E94851AD82ED2188FE7F82EF122F6FE79
:103380000BC05EEFF522D91438F4F4FE07C0F2FC4E
:1033900005C08FEEF82202C01D2D01C0192DF4FECC
:1033A0000DC0FE01ED0DF11D8081803319F499EE01
:1033B000F92208C01F5FF2FE05C003C08F2D86787A
:1033C00009F01F5F0F2DF3FC14C0F0FE0FC01E1597
:1033D00010F09D2C0BC09D2C9E0C911A1E2D06C02A
:1033E00080E290E0B3010E94591A1F5F1E15C0F3DE
:1033F00004C01E1510F4E11A01C0EE2404FF0FC032
:1034000080E390E0B3010E94591A02FF1DC001FD44
:1034100003C088E790E00EC088E590E00BC0802FE5
:10342000867891F001FF02C08BE201C080E2F7FCD8
:103430008DE290E0B3010E94591A06C080E390E04B
:10344000B3010E94591A9A94D914C0F3DA94F10185
:10345000ED0DF11D808190E0B3010E94591ADD202D
:10346000A9F706C080E290E0B3010E94591AEA94DD
:10347000EE20C1F743CEF30166817781CB012B9615
:10348000E2E10C94391BFC01059061507040011081
:10349000D8F7809590958E0F9F1F0895FC0161507D
:1034A000704001900110D8F7809590958E0F9F1F66
:1034B00008950F931F93CF93DF938C01EB018B81C2
:1034C00081FF1BC082FF0DC02E813F818C819D81B9
:1034D0002817390764F4E881F9810193F983E883B7
:1034E00006C0E885F985802F0995892B31F48E81F6
:1034F0009F8101969F838E8302C00FEF1FEFC8014B
:10350000DF91CF911F910F910895FA01AA272830DA
:1035100051F1203181F1E8946F936E7F6E5F7F4FA0
:103520008F4F9F4FAF4FB1E03ED0B4E03CD0670F1C
:10353000781F891F9A1FA11D680F791F8A1F911D6F
:10354000A11D6A0F711D811D911DA11D20D009F4BF
:1035500068943F912AE0269F11243019305D319301
:10356000DEF6CF010895462F4770405D4193B3E0EA
:103570000FD0C9F7F6CF462F4F70405D4A3318F091
:10358000495D31FD4052419302D0A9F7EACFB4E042
:10359000A6959795879577956795BA95C9F70097FA
:1035A0006105710508959B01AC010A2E069457959B
:1035B000479537952795BA95C9F7620F731F841FF2
:1035C000951FA01D0895629FD001739FF001829FF7
:1035D000E00DF11D649FE00DF11D929FF00D839FA2
:1035E000F00D749FF00D659FF00D9927729FB00D3F
:1035F000E11DF91F639FB00DE11DF91FBD01CF0152
:103600001124089597FB092E05260ED057FD04D0EE
:103610004BD00AD0001C38F4509540953095219538
:103620003F4F4F4F5F4F0895F6F7909580957095F7
:1036300061957F4F8F4F9F4F08952F923F924F92EA
:103640005F926F927F928F929F92AF92BF92CF9232
:10365000DF92EF92FF920F931F93CF93DF93CDB73B
:10366000DEB7CA1BDB0B0FB6F894DEBF0FBECDBFB3
:1036700009942A88398848885F846E847D848C8484
:103680009B84AA84B984C884DF80EE80FD800C818D
:103690001B81AA81B981CE0FD11D0FB6F894DEBF70
:1036A0000FBECDBFED010895A1E21A2EAA1BBB1BD0
:1036B000FD010DC0AA1FBB1FEE1FFF1FA217B307FE
:1036C000E407F50720F0A21BB30BE40BF50B661F14
:1036D000771F881F991F1A9469F7609570958095D8
:1036E00090959B01AC01BD01CF010895F894FFCFE7
:1036F000256400544558540048656C6C6F20576F22
:10370000726C64210052454354414E474C4520445D
:10371000454D4F00676C63645F647261775F7265EB
:10372000637400676C63645F647261775F72656382
:10373000745F746869636B00676C63645F64726173
:10374000775F726563745F736861646F77003132AD
:0E37500033003435360025640001000000000F
:00000001FF
