:100000000C94DC050C94F9050C94F9050C94F90595
:100010000C94F9050C94F9050C94F9050C94F90568
:100020000C94F9050C94F9050C94F9050C947406DC
:100030000C94F9050C94F9050C94F9050C94F90548
:100040000C94F9050C94F9050C94F9050C94F90538
:100050000C94F9050C94F9050C94F9050C94F90528
:100060000C94F9050C94F905000000000000005FF5
:1000700000000007000700147F147F14242A7F2A41
:10008000122313086462364955225000050300000C
:10009000001C2241000041221C00082A1C2A0808DA
:1000A000083E0808005030000008080808080060F2
:1000B00060000020100804023E5149453E00427F86
:1000C000400042615149462141454B311814127F8D
:1000D0001027454545393C4A494930017109050316
:1000E0003649494936064949291E0036360000007E
:1000F000563600000008142241141414141441222E
:100100001408000201510906324979413E7E11115D
:10011000117E7F494949363E414141227F4141227A
:100120001C7F494949417F090901013E4141513242
:100130007F0808087F00417F41002040413F017F48
:10014000081422417F404040407F0204027F7F0428
:1001500008107F3E4141413E7F090909063E415159
:10016000215E7F09192946464949493101017F012C
:10017000013F4040403F1F2040201F7F2018207F2C
:100180006314081463030478040361514945430070
:10019000007F4141020408102041417F0000040219
:1001A0000102044040404040000102040020545439
:1001B00054787F48444438384444442038444448C0
:1001C0007F3854545418087E090102081454543CD2
:1001D0007F0804047800447D40002040443D000036
:1001E0007F10284400417F40007C041804787C087C
:1001F00004047838444444387C1414140808141453
:10020000187C7C080404084854545420043F44409B
:10021000203C4040207C1C2040201C3C4030403C86
:1002200044281028440C5050503C4464544C440022
:100230000836410000007F00000041360800080831
:100240002A1C08081C2A0808000000000000000002
:10025000000000000000000000000000000000009E
:10026000000000000000000000000000000000008E
:1002700000000000000000000000008080C0C0C03E
:10028000E0E0E0E0E0E0E0E0E0E0E0E0E0E0C0C0AE
:10029000C08080000000000000000000000000009E
:1002A000000000000000000000000000000000004E
:1002B000000000000000000000000000000000003E
:1002C000000000000000000000000000000000002E
:1002D000000000000000000000000000000000001E
:1002E000000000000000000000000000000000000E
:1002F0000080C0E0F0F8FCFCFEFFFFFFFFFFFFFF07
:10030000FFFFFFFFFFFFFFFFFFFFFFFFFFFFFFFFFD
:10031000FFFFFFFFFFFEFCFCF8F0E0C080000000E4
:1003200000000000000000000000000000000000CD
:1003300000000000000000000000000000000000BD
:1003400000000000000000000000000000000000AD
:10035000000000000000000000000000000000009D
:100360000000000000000000000000000080F0FC21
:10037000FEFFFFFFFFFFFFFFFFFFFFFFFFFFFFFF8E
:10038000FFFFFFFFFFFFFFFFFFFFFFFFFFFFFFFF7D
:10039000FFFFFFFFFFFFFFFFFFFFFFFFFFFEFCF080
:1003A000C00000000000000000000000000000008D
:1003B000000000000000000000000000000000003D
:1003C000000000000000000000000000000000002D
:1003D000000000000000000000000000000000001D
:1003E000000000000000000000000000FCFFFFFF14
:1003F000FFFFFFFFFFFFFFFFFFFFFFFFFFFFFF1FED
:1004000007030101000000000000000103071FFFB7
:10041000FFFFFFFFFFFFFFFFFFFFFFFFFFFFFFFFEC
:10042000FFFC0000000000000000000000000000D1
:1004300000000000000000000000000000000000BC
:1004400000000000000000000000000000000000AC
:10045000000000000000000000000000000000009C
:100460000000000000000000000000001FFFFFFF70
:10047000FFFFFFFFFFFFFFFFFFFFFFFFFFFFFFFC8F
:10048000F0E0C08080000000000080C0C0F0FCFFF1
:10049000FFFFFFFFFFFFFFFFFFFFFFFFFFFFFFFF6C
:1004A000FF3F00000000000000000000000000000E
:1004B000000000000000000000000000000000003C
:1004C000000000000000000000000000000000002C
:1004D000000000000000000000000000000000001C
:1004E0000000000000000000000000000001071FE5
:1004F0007FFFFFFFFFFFFFFFFFFFFFFFFFFFFFFF8C
:10050000FFFF7F0F0300000000010F3FFFFFFFFF11
:10051000FFFFFFFFFFFFFFFFFFFFFFFFFF7F1F0743
:1005200001000000000000000000000000000000CA
:1005300000000000000000000000000000000000BB
:1005400000000000000000000000000000000000AB
:10055000000000000000000000000000000000009B
:10056000000000000000000000000000000000008B
:1005700000000103070F1F3F3F7FFFFFFFFFFF7FCB
:100580000F0300000000000000000000010F3FFF0B
:10059000FFFFFFFF7F7F3F1F0F07030100000000E9
:1005A000000000000000000000000000000000004B
:1005B000000000000000000000000000000000003B
:1005C000000000000000000000000000000000002B
:1005D000000000000000000000000000000000001B
:1005E000000000000000000000000000000000000B
:1005F00000000000000000000000000000010100F9
:1006000000000000000000000000000000000001E9
:1006100001010000000000000000000000000000D8
:1006200000000000000000000000000000000000CA
:1006300000000000000000000000000000000000BA
:10064000000000000000000000E0F0380C0C0C0C72
:1006500038F8C000001F7FE080808080E0FF1F002E
:100660000000000101010101000000000010181845
:10067000FCFC00000000000000000000FFFF000084
:100680000000000000000000010100000000000068
:1006900000081C0C0C0C0C8CF8F0000000F0F89C0E
:1006A0008C86868383800000000101010101010125
:1006B0000101000000081C0C0C0C0C8CF8F0000070
:1006C0000080C080818383C7FF7C0000000001019F
:1006D000010101010000000000000080C07038FC32
:1006E000FC000000001C1E1B111810FFFF1018005A
:1006F0000000000000000001010000000000F4FC08
:100700001C0C0C0C0C0000000080C383838383C787
:10071000FE7800000000000101010101000000005E
:1007200000C0F0781C0C0C0C08000000003FFFC358
:10073000838383C3FE7C00000000000101010101EE
:1007400000000000000C0C0C0C8CCC7C3C0C00005D
:10075000000080F07C0F0300000000000000010199
:10076000000000000000000000F0F81C0C0C0C0C55
:10077000F8F0000000F8FF8F0706068FFFF8000072
:1007800000000103030303010100000000F0F81C56
:100790000C0C0C1CF8E000000001878E8C8C8CEE99
:1007A0007F1F0000000001010101010000000000A6
:1007B000000000000000005F0000000700070014B8
:1007C0007F147F14242A7F2A122313086462364977
:1007D0005522500005030000001C22410000412268
:1007E0001C00082A1C2A0808083E0808005030008F
:1007F00000080808080800606000002010080402D3
:100800003E5149453E00427F4000426151494621E8
:1008100041454B311814127F1027454545393C4A54
:1008200049493001710905033649494936064949A4
:10083000291E00363600000056360000000814223B
:100840004114141414144122140800020151090621
:10085000324979413E7E1111117E7F494949363E28
:10086000414141227F4141221C7F494949417F0941
:100870000901013E414151327F0808087F00417F54
:1008800041002040413F017F081422417F40404009
:10089000407F0204027F7F0408107F3E4141413EB9
:1008A0007F090909063E4151215E7F091929464603
:1008B0004949493101017F01013F4040403F1F202C
:1008C00040201F7F2018207F6314081463030478DE
:1008D0000403615149454300007F4141020408106F
:1008E0002041417F0000040201020440404040409A
:1008F000000102040020545454787F48444438389E
:1009000044444420384444487F3854545418087EA2
:10091000090102081454543C7F0804047800447D03
:1009200040002040443D00007F10284400417F40AB
:10093000007C041804787C08040478384444443863
:100940007C14141408081414187C7C080404084847
:1009500054545420043F4440203C4040207C1C2000
:1009600040201C3C4030403C44281028440C50504F
:10097000503C4464544C44000836410000007F0061
:1009800000004136080008082A1C08081C2A08082C
:100990000600000000000000000F00000F00000F24
:1009A00000000F0000000000000000000000000038
:1009B0000000000000000000000000000000070030
:1009C000001E00E01F00FF1FF8FF03FF1F00FF01D4
:1009D000000F000000000000000000000000000008
:1009E0000000000000000000000000000E000000F9
:1009F000C07F00F8FF01FCFF07FCFF073E800F0EE1
:100A0000000E0E000E0E000E1E800FFCFF07FCFFF6
:100A100007F8FF01C07F000000000E00000070001A
:100A20000E38000E38000E1C000E0E000EFEFF0FDA
:100A3000FEFF0FFEFF0FFEFF0F00000E00000E0076
:100A4000000E00000E0000000E00000060000F7895
:100A5000800F7CC00F7CE00F1EF00F0EF80E0E7C96
:100A60000E0E3E0E1E1F0EFE0F0EFC070EF8030E9E
:100A7000F0010E0000000E000000308001388003FD
:100A80003C80073C800F1E000F0E0E0E0E0E0E0E49
:100A90000E0E1E1F0FFEFF0FFCFB07FCF903F0E01C
:100AA000010000000F00000000F00000F80000FE50
:100AB0000080EF00C0E700F0E1007CE0003EE000D5
:100AC000FEFF0FFEFF0FFEFF0FFEFF0F00E0000016
:100AD000E0000E000000008001F88703FE8707FE9B
:100AE000870FFE070F0E030E8E030E8E030E8E076A
:100AF0000F8EFF070EFF070EFE0300FC0000000034
:100B00000E000000C07F00F0FF01F8FF07FCFF07A8
:100B10003E0E0F0E070E0E070E0E070E1E0F0F3E97
:100B2000FF0F3CFE0738FE0330F8010000000E0006
:100B300000000E00000E00000E00000E000F0EE080
:100B40000F0EF80F0EFE0F8EFF00CE0F00FE0300FB
:100B5000FE00003E00001E00000000000E0000002D
:100B6000F0E001F8FB03FCFB07FEFF0F1E1F0F0E5A
:100B70000E0E0E0E0E0E0E0E1E1F0FFEFF0FFCFBB6
:100B800007FCFB03F0E0010000000E000000F08312
:100B900001F88703FC8F07FE9F0F1E1E0F0E1C0E11
:100BA0000E1C0E0E1C0E1E8E0FFCFF07FCFF03F822
:100BB000FF01C07F0000000011241FBECFEFD8E06E
:100BC000DEBFCDBF11E0A0E0B1E0EAE8F8E302C08B
:100BD00005900D92A43FB107D9F714E0A4EFB1E05E
:100BE00001C01D92A630B107E1F70E9416070C94D0
:100BF000431C0C940000AF92BF92CF92DF92EF9211
:100C0000FF920F931F93CF93DF939091FC01C92F15
:100C1000D0E022972091FE0130E042E0C42ED12C9A
:100C2000C20ED31E9EEFE92E9FEFF92EE20EF31EA9
:100C30000091F6012091FD019BE0899FF0011124B4
:100C4000EE5BFE4FAEE6B1E07BE010E030E0AA24C0
:100C5000A39483E0B82E6081662369F1633011F0BC
:100C6000715001C03F5F11968C91119790E00496EE
:100C70008C179D070CF18C91482F50E0C416D506B7
:100C8000DCF012968C911297480F511D4E155F059E
:100C90009CF0213089F4653021F41082B0923F013C
:100CA00003E08081813009F410828081823009F470
:100CB000A08220E001C01F5F3196139681E0A23927
:100CC000B80749F60093F6012093FD01731B872FA7
:100CD000811BDF91CF911F910F91FF90EF90DF90DB
:100CE000CF90BF90AF9008951F920F920FB60F92C2
:100CF00011242F938F939F932091F4012F5F2093C2
:100D0000F40180914001882319F0815080934001C3
:100D10008091F8018F5F8093F80190913F018917CE
:100D200029F481E080933E011092F8012A3039F4D1
:100D30001092F4018091F5018F5F8093F50180910D
:100D4000F5018A3091F48091F7018F5F8093F7016C
:100D50008091F601882321F081508093F60103C031
:100D600086E080933F011092F5019F918F912F9122
:100D70000F900FBE0F901F901895EF92FF920F9358
:100D8000623061F0633020F4613009F04BC03BC049
:100D9000633049F1653009F045C035C090E07C0111
:100DA000EE0CFF1CE80EF91E8EE691E0E80EF91E2F
:100DB000F70180816181428124E001E00E943411C9
:100DC000F701808121814281480F622F2C5F0E94B0
:100DD000F811F701408121818281622F6C5F840FBD
:100DE0000E94F8111FC090E0FC01EE0FFF1FE80FFA
:100DF000F91FE259FE4F80816181428124E001E0C8
:100E00000E949D110FC090E0FC01EE0FFF1FE80F44
:100E1000F91FE259FE4F80816181428124E001E0A7
:100E20000E9434110F91FF90EF9008953F924F92DE
:100E30005F926F927F928F929F92AF92BF92CF926A
:100E4000DF92EF92FF920F931F93DF93CF93CDB773
:100E5000DEB72A970FB6F894DEBF0FBECDBF229A39
:100E60002A9A8AB18B798AB98BB184668BB986EF5D
:100E700094E090938900809388008091810088603D
:100E80008093810080916F00826080936F008091D9
:100E900081008360809381008DE08093FC018AE271
:100EA0008093FE011092FD018AE0809341018AE265
:100EB0006DE042E021E00E94400F78940E94E50935
:100EC0000E94C0090E94150A88E690E065E047E0AC
:100ED00020E20FE70E94A01563E2F62E53E0E52E14
:100EE000DD2410E04AE0542E3BE0632E712C5E01BD
:100EF0000894A11CB11C28E1822E21E0922E98E1D9
:100F0000492E88E2382E04E1C02E81E0D81659F12E
:100F1000D81620F092E0D916C1F780C187E062E0D0
:100F200040E051E00E94D61680E060E044E52FE208
:100F300001E00E9434110E94150A8091FE01609127
:100F4000FC0142E021E00E94400F4A99DECF8091EF
:100F500040018823D1F682E0809340015092410104
:100F6000DD24D39411E00E94150A113021F410926F
:100F7000FD01C092FC010E94150A4E990BC08091A0
:100F80004001882339F482E080934001FA9411F4FF
:100F900012E0F12E4D990DC080914001882349F453
:100FA00082E080934001F394A4E4AF1510F4B3E41D
:100FB000FB2EE091FD01EE2341F480913E01813052
:100FC00079F48091FC018F5F09C0E13049F4809190
:100FD0003E01813029F48091FC0181508093FC0115
:100FE00080914101882341F480913E01813079F460
:100FF0008091FE01815009C0813049F480913E0109
:10100000813029F48091FE018F5F8093FE01109260
:101010003E01F091FC016F2F70E068327105CCF059
:101020002F2D30E08091FE01482F50E0C901049639
:101030008417950774F4265F3F4F241735074CF04B
:10104000EE2339F46A32710554F481E08093FD0196
:1010500009C0E13021F4F33010F41092FD01683240
:101060007105B4F04091FE01242F30E08F2D90E007
:1010700005968217930764F04F1550F08091FD019B
:10108000882331F41092410181E08093FD0107C073
:101090008091FE01833018F481E0809341012F2D6F
:1010A00030E0E091FE014E2F50E0C901099684170F
:1010B000950794F4215F3F4F241735076CF0683291
:1010C000710554F08091FD01882331F481E0809313
:1010D00041018093FD0104C0E23510F010924101FE
:1010E0008091FA010E94FB05882349F48091FA015E
:1010F0008F5F8093FA010E94AD09A3E0EA2E8091F0
:10110000FC0190E08E975CF0EA944092FC013092F2
:10111000FE011092FD0182E08093410104C0EE20A7
:1011200011F4F2E0DF2E0E94AD0900E010E08091A2
:10113000FA0190E0869DF001879DF00D969DF00DDF
:101140001124E00FF11FEE5BFE4F802F60810E94A3
:10115000BD060F5F1F4F0C30110549F7B3E0EB16CA
:1011600079F48F2D8F5E6AE241E00E94010F8F2D8E
:101170008D5E6AE241E00E94010F8F2D8B5E0FC0F1
:1011800082E0E81639F48F2D8D5E6AE241E00E941C
:10119000010F03C091E0E91631F48F2D8F5E6AE2F2
:1011A00041E00E94010F00D000D000D0EDB7FEB7A3
:1011B0003196ADB7BEB71296BC92AE92119793829C
:1011C00082828091F701848315820E940F198DB766
:1011D0009EB706960FB6F8949EBF0FBE8DBF8F2D9B
:1011E0008C5065E0A5010E94D6168F2D6AE24FE073
:1011F00023E001E00E949D118091FE016091FC01BD
:1012000042E021E00E94400F80E060E044E52FE2F0
:101210000E9434110E94150A10E077CE0E94AD0999
:1012200080E161E04BE151E00E94D61687E063E087
:1012300045E251E00E94D6160E94150A4A99EECF67
:1012400080914001882351F7D09240011092F7011C
:101250001092FA01E3E0EE2EDD24D39484CE982F91
:10126000843508F093E5443508F043E5603308F031
:101270006FE2203308F02FE2E091FD03F091FE03CE
:101280008081981708F490838281841708F4428340
:101290008181681708F461838381821708F42383AE
:1012A0000895E091FD03F091FE0383E580831282AF
:1012B0008FE2818313820895E091FD03F091FE0394
:1012C00083E5808312828FE2818313820895E09107
:1012D000FD03F091FE03108283E5828311828FE289
:1012E000838308959093FC038093FB037093FE0324
:1012F0006093FD030895089540E050E020E030E061
:1013000064E58091FB039091FC034530510581F029
:10131000DC01A20FB31F2C5A3F4FFC01E20FF31F59
:101320002455304084E501900D928150E1F707C0CB
:101330008C559E4FDC01862F1D928A95E9F74F5FF1
:101340005F4F2C5A3F4F46305105D9F680E060E0A0
:1013500043E52FE20E942F090895E091FB03F091ED
:10136000FC0388EF91E0DF019C011D922150304089
:10137000E1F780E060E043E52FE20E942F09089545
:10138000E091FB03F091FC0388EF91E0DF019C0109
:101390001D9221503040E1F780E060E043E52FE20C
:1013A0000E942F090E94150A089528988EBD0DB439
:1013B00007FEFDCF289A089528985F9880EA9FE05D
:1013C0000197F1F75F9A289A0895209A239A209A14
:1013D000259A209A219A579A289A80E58CBD1DBC9F
:1013E0000E94030A83E092E06FEF71E00E947209AD
:1013F0000E94C0090895299A0E94D5090895299844
:101400000E94D50908950E94DC0981E20E94FF092B
:1014100082E10E94FF098CEB0E94FF0980E20E949A
:10142000FF098CE00E94FF090895EF92FF920F934D
:101430001F93CF93DF9300E020E030E0C0E0D0E0E6
:10144000E091FD03F091FE0388E0E82EF12CE20E1E
:10145000F31E818190E08E159F0554F5838190E005
:101460008217930764F1802F80640E94FF09E09146
:10147000FD03F091FE03808180680E94FF09E091E6
:10148000FD03F091FE0310810CC0E091FB03F0918D
:10149000FC03EC0FFD1FE10FF11D80810E94FB0991
:1014A0001F5FE091FD03F091FE038281811768F7D1
:1014B0000F5FCC5ADF4F063011F09701C1CF0E9469
:1014C0005109DF91CF911F910F91FF90EF900895F7
:1014D00080680E94FF090895863010F085E401C0FD
:1014E00080640E94FF09089580E20E94FF09089528
:1014F0000E94C00984E20E94FF0908951F93182FDB
:1015000081E20E94FF09812F80680E94FF0980E22A
:101510000E94FF098CE00E94FF091F910895282F67
:1015200050E070E0681B7109469FC001479F900D15
:10153000569F900D11246FEF70E00E947E18822F4D
:10154000860F08952F923F925F926F927F928F92B3
:101550009F92AF92BF92CF92DF92EF92FF920F9342
:101560001F93DF93CF930F92CDB7DEB7882EB62EA1
:10157000942EC22E502E01E00E943411DD24D3940B
:101580000C2D10E03801089461087108292C3324CF
:1015900008942108310812C08F2D8F5F6A2D0E9498
:1015A000800E482F8F2D6A2D0E94010FE394F39433
:1015B0008E2D90E0821593057CF3D3948D2D90E0D1
:1015C0008615970534F4F82CEE24E394AD2CAB0C7F
:1015D000EECF03501040852D90E09C01029FC0018A
:1015E000039F900D129F900D11246FEF70E00E94E9
:1015F0007E18262F0F5F1F4F862F90E080179107D0
:1016000014F02C2D23506C2D6B0D982D9250990DAC
:10161000162F121B62501250892F492F212F01E0E3
:1016200099830E94F8111150B3949981892F612FE9
:10163000492F2B2D00E00E94F8110E94150A0F90EF
:10164000CF91DF911F910F91FF90EF90DF90CF909E
:10165000BF90AF909F908F907F906F905F903F90E2
:101660002F9008957F928F929F92AF92BF92CF92C8
:10167000DF92EF92FF920F931F93782E862E942E77
:10168000A22EB02EFE2CEE2011F4FF24F39410E0D5
:1016900008C0872D682D492D2A2D0B2D0E94A20AE6
:1016A0001F5F1F15B0F3C114D10409F441C0B60186
:1016B00080E090E00E9465175B016C0120E030E063
:1016C0004AE755E40E94F3177B018C0120E030E0EB
:1016D00040E85FE30E94351788231CF461E070E066
:1016E00024C0C801B70120E03FEF4FE757E40E9454
:1016F000EF171816B4F4C601B50120E030E040E25F
:1017000051E40E94F3170E94391780E991E005C067
:10171000FC013197F1F76150704061157105C1F717
:1017200007C0C801B7010E943917CB010197F1F733
:101730001F910F91FF90EF90DF90CF90BF90AF90EF
:101740009F908F907F900895DF92EF92FF920F937A
:101750001F93E82EF62ED42E122F402F622F6250A8
:10176000409580E00E948F0AF80E181B12508E2DB3
:101770006F2D4D2D212F01E00E949D111F910F9182
:10178000FF90EF90DF900895CF92DF92EF92FF925B
:101790000F931F93C82ED62EE42E122FF02E01E0A9
:1017A0000E943411612F6250F09480E04F2D0E940E
:1017B0008F0A682F6F5F6D0D9EEFE90E181B125098
:1017C0008C2D8F5F4E2D212F0E949D111F910F9107
:1017D000FF90EF90DF90CF900895EF92FF920F93DC
:1017E0001F93F82EE62E122F233060F080E0642F36
:1017F000402F0E948F0A482F8F2D6E2D212F01E040
:101800000E949D111F910F91FF90EF900895CF922C
:10181000DF92EF92FF920F931F93C82EE62E142FA4
:10182000F22ED02E82E08217A0F48C2D01E00E94CF
:101830003411125080E0612F4D2D0E948F0A482FE5
:10184000E3948EEFF80E8C2D8F5F6E2D2F2D0E945E
:101850009D111F910F91FF90EF90DF90CF90089511
:101860000F93909300048093FF03609301044093CF
:101870000204209303040093040481E08093050490
:101880000F910895EF920F93909300048093FF03BC
:101890006093010440930204209303040093040422
:1018A000E09205040F91EF9008952F923F924F928E
:1018B0005F926F927F928F929F92AF92BF92CF92E0
:1018C000DF92EF92FF920F931F93DF93CF93CDB7E9
:1018D000DEB763970FB6F894DEBF0FBECDBF482EBC
:1018E000E62E342F50910304451720F08091040414
:1018F000841708F43EE280910504882309F058C05B
:10190000042DFF24432E5524602E77248E2C9924F9
:1019100049C04F2D50E0809103049201281B3109EA
:10192000892F90E0BC01269FC001279F900D369F14
:10193000900D1124840F951FE091FF03F091000496
:10194000E80FF91FE4911E2D222433245A01A60C1E
:10195000B71CCE2EDD2474E5A716B1040CF070C1BF
:10196000C101880D991DC0970CF06AC1C601022CF7
:1019700002C0959587950A94E2F780FF04C0802FF6
:10198000612F41E003C0802F612F40E00E94010FD2
:101990000894211C311C1F5F88E028163104D9F6F9
:1019A000F3940F5F90910104F91608F4B2CF49C186
:1019B000813009F09CC020910204822F90E0877052
:1019C0009070269526952695892B09F02F5F2C83FC
:1019D000809101049C81989F802D11248F5F90E05D
:1019E000232F30E0251B3109DC01A29FC001A39FFA
:1019F000900DB29F900D1124E091FF03F09100042F
:101A0000E80FF91FB491BB833C81232F30E03A8368
:101A100029833F010894611C711C542C882499244B
:101A2000E98A442D50E05C874B874FC0F5018491D3
:101A3000E88686011B8A1A8A282E332429853A854E
:101A4000243531050CF0FCC02A898A899B898E0DCA
:101A50009F1DC0970CF0F4C08091020490E008171D
:101A6000190794F4C101022E02C0959587950A9436
:101A7000E2F76885620F80FF03C0852D41E002C058
:101A8000852D40E00E94010F4A895B894F5F5F4FBF
:101A90005B8B4A8B0F5F1F4F4830510579F643949B
:101AA00068E070E0E60EF71EC60ED71E0894A11C73
:101AB000B11C7C81471608F4B9CF0894811C911C95
:101AC00089819A81680E791E53949B81891608F04A
:101AD000B8C0898990E07C0153014424CC24DD24E2
:101AE000AB85BC85A80DB91DBA87A987E2CF823026
:101AF00009F0A6C0B0900204B694B694B694B3941C
:101B000040910104232F30E0251B3109B49E802D24
:101B1000112490E0FC012E9FC0012F9F900D3E9F4D
:101B2000900D11248090FF0390900004880E991E60
:101B3000542E30E050E041505040642F631BE0E0F1
:101B400020E090E007C0892F861BF401E80FF11D0B
:101B5000E0812F5F960F2B15B0F3EE2321F45A94FA
:101B600011F03F5FEACFFF246624CC24DD24242D2E
:101B700030E0388B2F8758C08A2D90E020910104E7
:101B800030E04E815F81429FF001439FF00D529FF4
:101B9000F00D1124E80FF91FE80DF91DE4918601FD
:101BA0001B8A1A8A6F857889680F791F7E876D87EF
:101BB0002E2E33248D859E85843591050CF040C0F2
:101BC0002A898A899B898E0D9F1DC097CCF58091AB
:101BD000020490E00817190794F4C101022E02C014
:101BE000959587950A94E2F76D81620F80FF03C097
:101BF000872D41E002C0872D40E00E94010FEA8955
:101C0000FB893196FB8BEA8B0F5F1F4F389791F65C
:101C1000A3947394A51408F4AFCF639428E030E044
:101C2000E20EF31EC20ED31E6B1410F0952D09C0E8
:101C3000462D50E05F834E83ED82742CAA24EACFB8
:101C400090E0892F63960FB6F894DEBF0FBECDBF2C
:101C5000CF91DF911F910F91FF90EF90DF90CF9088
:101C6000BF90AF909F908F907F906F905F904F90BC
:101C70003F902F9008950F931F93CF93DF93182FCA
:101C8000062FEA01862F90E0409102042FE230E017
:101C9000241B31092817390764F0FE01219644916D
:101CA000442339F0812F602F0E94550C8F5F180F4D
:101CB000F4CFDF91CF911F910F9108950F931F9350
:101CC000CF93DF93182F062FEA01862F90E04091E3
:101CD00002042FE230E0241B31092817390744F4AD
:101CE0000AC0812F602F0E94550C8F5F180F21961C
:101CF00048814423B1F7DF91CF911F910F9108954F
:101D0000482F8435F0F46033E0F4862F869586956D
:101D1000869590E024E530E0829FF001839FF00DEE
:101D2000929FF00D1124E40FF11DED5FFD4F8081B6
:101D300090E0677002C0959587956A95E2F781708B
:101D4000089580E00895BC018091FB039091FC030D
:101D500048EF51E00E9406190E94670908950F9309
:101D60001F93082F162F8435E8F46033D8F4402FE2
:101D7000212F0E942F09E12FE695E695E69584E54F
:101D8000E89FF0011124E00FF11DED5FFD4F17708A
:101D900081E090E002C0880F991F1A95E2F7208138
:101DA000282720831F910F910895DF92EF92FF92D1
:101DB0000F931F93CF93DF93D62E082FE82EFF2487
:101DC000E40EF11CC62FD0E0C20FD11D0BC0802F36
:101DD000612F0E94AF0E1F5F812F90E08C179D072F
:101DE000B4F30F5F802F90E08E159F0514F41D2D26
:101DF000F3CFDF91CF911F910F91FF90EF90DF9084
:101E00000895A82F762F8435D0F56033C0F5562F6E
:101E100056955695569590E0262F30E04423A1F034
:101E2000E4E55E9FF0011124E80FF91FED5FFD4F1F
:101E30002770307081E090E002C0880F991F2A95CA
:101E4000E2F72081282B14C0E4E55E9FF001112405
:101E5000E80FF91FED5FFD4F2770307081E090E0D3
:101E600002C0880F991F2A95E2F7809520812823C8
:101E700020838A2F672F4A2F272F0E942F0908952A
:101E80003F924F925F926F927F928F929F92AF920A
:101E9000BF92CF92DF92EF92FF920F931F93DF9347
:101EA000CF9300D000D000D0CDB7DEB7B82EE62E4D
:101EB000F42E622E042F10E0641B480F2F2D2E0DE0
:101EC0008F190E942F098E2C99242401401A510A3F
:101ED0006801C80CD91C08C08B2D642D462D0E94AA
:101EE000010F0894411C511CC414D504ACF7DD2427
:101EF000D394DF18000F111F402E4194CF2CAA2439
:101F000000E010E083E0782E8E2D90E09C012150BF
:101F100030403A832983FC013196FC83EB8354C023
:101F2000D7FC04C0CA94F2E04F0ED40CA3948C2DBD
:101F3000992787FD90959401281B390B3E832D83AB
:101F40007C01E80CF91C3A2C3B0C5B2C5A180FC096
:101F5000832D6D81462D0E94010F852D6D81462DAB
:101F60000E94010F8D819E8101969E838D83ED815C
:101F7000FE81EE16FF0664F729813A81201B310BA2
:101F80003E832D83EB80FC80E00EF11E3C2C3B0C4D
:101F90005B2C5C180FC0832D6D81462D0E94010FB4
:101FA000852D6D81462D0E94010F8D819E810196A8
:101FB0009E838D83ED81FE81EE16FF0664F7D70CBC
:101FC0000F5F1F4FF2E07F0EAC140CF4A9CF2696E2
:101FD0000FB6F894DEBF0FBECDBFCF91DF911F913A
:101FE0000F91FF90EF90DF90CF90BF90AF909F90B8
:101FF0008F907F906F905F904F903F9008957F9269
:102000008F929F92AF92BF92CF92DF92EF92FF9208
:102010000F931F93A82EB62EC22E99249394941A30
:10202000842F90E0880F991F782E7194D42EEA2C7B
:10203000E41A062F041BF42EFA0C142F160F8E2D03
:10204000602F4F2D212F0E942F098A2D612F4C2D9B
:102050000E94010F8A2D602F4C2D0E94010F8F2DA1
:102060006B2D4C2D0E94010F8E2D6B2D4C2D0E943F
:10207000010FEE2423E0822E42C097FC04C0DA94C4
:1020800082E0780E970CE394980CFE2CFA0C1D2D30
:102090001B0D8F2D612F4C2D0E94010F0A2D0E1943
:1020A000802F612F4C2D0E94010F1B2D1D198F2D8C
:1020B000612F4C2D0E94010F802F612F4C2D0E940B
:1020C000010FFD2CFA0C1E2D1B0D8F2D612F4C2D99
:1020D0000E94010F0A2D0D19802F612F4C2D0E9497
:1020E000010F1B2D1E198F2D612F4C2D0E94010FEA
:1020F000802F612F4C2D0E94010F82E0880EED147D
:102100000CF4BBCF1F910F91FF90EF90DF90CF9019
:10211000BF90AF909F908F907F9008952F923F92A5
:102120004F925F926F927F928F929F92AF92BF92E7
:10213000CF92DF92EF92FF920F931F93DF93CF9393
:1021400000D00F92CDB7DEB7B82EA62E442E29832D
:10215000902E8E2D5C2C002311F4992493948823C7
:1021600009F481E000E010E0CB2CDD241601240C02
:10217000311C89808A0C682E772418C06A816A0D08
:102180008E2D452D0E94010F8E2D6F2D452D0E9405
:10219000010F8A819B8101969B838A83FA94EA814D
:1021A000FB81E615F70554F30F5F1F4FC8018C0D37
:1021B0009D1D8215930534F4F82C1B821A82EB2C9A
:1021C000E00EECCF00E010E0CA2CDD243601F981EE
:1021D0006F0E711C342C3B0C892C992418C08A81F9
:1021E0008B0D6F2D452D0E94010F8E2D6F2D452DCE
:1021F0000E94010F8A819B8101969B838A83EA94C6
:10220000EA81FB81E815F90554F30F5F1F4FC80100
:102210008C0D9D1D8615970534F4E32C1B821A82C4
:10222000FA2CF00EECCF4B2D4150440D2A2D2150AD
:10223000F9812F0F8B2D6A2D0E942F090F900F907F
:102240000F90CF91DF911F910F91FF90EF90DF9052
:10225000CF90BF90AF909F908F907F906F905F9046
:102260004F903F902F9008956F927F928F929F9200
:10227000AF92BF92CF92DF92EF92FF920F931F9394
:10228000CF93DF93E82EF62EA42E722EB02EC0E050
:10229000D0E0C82EDD244601840E911CFA940F2D47
:1022A000020FF3940DC01E2D1C0F812F6F2D4B2D8F
:1022B0000E94010F812F602F4B2D0E94010F21964C
:1022C000CE018C0D9D1D881599056CF3C0E0D0E002
:1022D000CF2CDD244601870C911C0E2D0150602E61
:1022E0006A0C0DC01F2D1C0F8E2D612F4B2D0E94CF
:1022F000010F862D612F4B2D0E94010F2196CE01DB
:102300008C0D9D1D881599056CF30A0D2F2D2150FC
:10231000270D8E2D6F2D402F0E942F09DF91CF9119
:102320001F910F91FF90EF90DF90CF90BF90AF90F3
:102330009F908F907F906F9008952F923F924F9231
:102340005F926F927F928F929F92AF92BF92CF9245
:10235000DF92EF92FF920F931F93CF93DF93D82ECC
:10236000C62E442E322E202E00E010E0A82EBB24D4
:102370003501640E711CE62EFF244701820E911C6C
:1023800014C0C0E0D0E05D2C500E07C06C2D6C0F67
:10239000852D422D0E94010F2196CE018E0D9F1D8D
:1023A000881599059CF30F5F1F4FC8018A0D9B1D6F
:1023B0008615970534F34D2D4150440D2C2D215099
:1023C000230D8D2D6C2D0E942F09DF91CF911F9130
:1023D0000F91FF90EF90DF90CF90BF90AF909F90C4
:1023E0008F907F906F905F904F903F902F900895C7
:1023F0009F92AF92BF92CF92DF92EF92FF920F9394
:102400001F93F82EE62ED42E122F902EAA2430E001
:10241000261B310937FF03C0309521953F4F8D2D85
:1024200090E08F19910997FF03C0909581959F4F78
:102430008217930744F4AA24A3948E2DEF2CF82E30
:10244000812F1D2DD82EDF1430F48D2DDF2CF82E8A
:10245000812F1E2DE82E8F2D6E2D4D2D212F0E94A8
:102460002F09CD2CCF18812F90E08E19910997FF5D
:1024700003C0909581959F4FB82EE11610F00FEF95
:1024800001C001E01C2D169510C0AA2019F08E2D58
:102490006F2D02C08F2D6E2D492D0E94010F1B192B
:1024A00017FF02C0E00E1C0DF394DF1470F71F91AC
:1024B0000F91FF90EF90DF90CF90BF90AF909F90E3
:1024C0000895CF92DF92EF92FF920F931F93E82E21
:1024D000D62E142FF22E0E9434111E0DFD0C8E2DBF
:1024E0008F5F6F2D412F2F2D0E94F811D394812FD4
:1024F0006D2D412F2F2D0E94F8111F910F91FF90EC
:10250000EF90DF90CF90089588E492E00E94A30EB0
:102510000E94150A8091FB018823E1F31092FB01D0
:1025200008950F931F93CF93DF930E94C0090E94D9
:10253000150A40C080E060E042E322E30C2F0E94D5
:10254000A20A8CE360E042E32EE10E94A20A8CE33F
:1025500063E24CE324E10E94A20A8091FB018823FC
:10256000F9F46496CF3FD10529F320F310E0012F51
:10257000009580E060E042E322E30E94A20A8CE33F
:1025800060E042E32EE1012F0E94A20A8CE363E2A5
:102590004CE324E10E94A20A8091FB01882339F0D8
:1025A0001092FB01DF91CF911F910F9108951C5E56
:1025B0001430E9F6C0E0D0E0D5CF0F9380EB97E080
:1025C00065E047E020E20FE70E94A0150E94AD09F8
:1025D00080E060E04FE851E00E94D6160E94150AA4
:1025E0008091FB018823E1F31092FB010F91089584
:1025F000CF92EF920F93CF93DF9380EB97E065E05C
:1026000047E020E20FE70E94A0150E94AD0980E09C
:1026100060E04CE951E00E94D6160E94150A80ED58
:1026200097E020E931E0F9013197F1F70197D9F707
:10263000C0E9D1E00E94C00980E060E044E622E306
:1026400001E00E94341180E069E04BEA51E00E9411
:10265000D6160E94150A88E893E1FE013197F1F73A
:102660000197D9F78091FB01882309F085C00E946A
:10267000C00980E069E04AEB51E00E94D6160E9452
:10268000150A85E065E040E52EE103E056E0E52E21
:10269000CC24C3940E948E100E94150A88E893E10E
:1026A000FE013197F1F70197D9F78091FB0188235B
:1026B00009F062C080E060E044E124E102E032E041
:1026C000E32ECC24C3940E948E100E94150A88E841
:1026D00093E1FE013197F1F70197D9F78091FB0162
:1026E000882309F049C084E66AE044E124E105E07A
:1026F00095E0E92ECC24C3940E948E100E94150A06
:1027000088E893E1FE013197F1F70197D9F78091BD
:10271000FB01882389F50E94C00980E069E04FEC45
:1027200051E00E94D61680E060E04DE22EE101E02B
:102730000E9461120E94150A88E893E1FE01319718
:10274000F1F70197D9F78091FB018823A9F48FE570
:1027500065E04EE12EE101E00E9461120E94150A3F
:1027600088E893E1FE013197F1F70197D9F780915D
:10277000FB01882309F45ECF1092FB01DF91CF911A
:102780000F91EF90CF900895AF92BF92CF92DF92CA
:10279000EF92FF920F93DF93CF93CDB7DEB72F97D2
:1027A0000FB6F894DEBF0FBECDBF80EB97E065E0BB
:1027B00047E020E20FE70E94A01500E27E010894A6
:1027C000E11CF11C7FE0A72EB12CAC0EBD1E60E910
:1027D000C62E61E0D62EF70100830F5F07FD00E2F1
:1027E0003196EA15FB05C1F71F86C7010E9426171F
:1027F0008091FB01882391F01092FB012F960FB678
:10280000F894DEBF0FBECDBFCF91DF910F91FF9047
:10281000EF90DF90CF90BF90AF90089580E197E266
:10282000F6013197F1F70197D9F7D5CF0F931F93A1
:10283000CF93DF9380E999E06FE045E12EE209E371
:102840000E94300C1EE280910204181B00E0C0E9D7
:10285000D1E016C08091FB018823D1F40E94AD091C
:1028600080E0602F45EE51E00E945E0E0E94150A46
:1028700080E293E0FE013197F1F70197D9F70F5FFE
:10288000011740F3012F1DC08091FB01882339F00F
:102890001092FB01DF91CF911F910F9108950E943B
:1028A000AD0980E0602F49EE51E00E945E0E0E946B
:1028B000150A80E293E0FE013197F1F70197D9F70D
:1028C0000150002309F7DCCF8F929F92AF92BF9205
:1028D000CF92DF92EF920F93DF93CF93CDB7DEB716
:1028E00028970FB6F894DEBF0FBECDBF19821A82AB
:1028F0001B821C821D821E821F821886CC24DD242E
:102900005E010894A11CB11CFDEE8F2EF1E09F2EFC
:102910000E94AD0988E496E06CE043E120E309E31E
:10292000E2E0EE2E0E94420C00D000D000D0EDB7C5
:10293000FEB73196ADB7BEB71296BC92AE92119764
:1029400093828282D582C4820E940F198DB79EB76E
:1029500006960FB6F8949EBF0FBE8DBF80E060E074
:10296000A5010E945E0E0E94150A0894C11CD11C8C
:102970008091FB01882361F21092FB0128960FB62B
:10298000F894DEBF0FBECDBFCF91DF910F91EF90D6
:10299000DF90CF90BF90AF909F908F9008958F92CF
:1029A0009F92AF92BF92DF92EF92FF920F931F938D
:1029B000DF93CF93CDB7DEB728970FB6F894DEBF7D
:1029C0000FBECDBF19821A821B821C821D821E82FD
:1029D0001F821886DD245E010894A11CB11C1DEE27
:1029E000812E11E0912E0E94AD0980E999E06FE0FF
:1029F00045E12EE209E30E94300CED2CFF2400D0CB
:102A000000D000D0EDB7FEB73196ADB7BEB7129685
:102A1000BC92AE92119793828282F582E4820E94E8
:102A20000F198DB79EB706960FB6F8949EBF0FBECE
:102A30008DBF80E060E0A5010E945E0E8701000F5F
:102A4000111F000F111F8AE066E24EE126E00E948E
:102A5000070CEE0CFF1C86E460E048E02EE10E2D32
:102A60000E94C40B0E94150AD3948091FB01882315
:102A700009F4B9CF1092FB0128960FB6F894DEBF87
:102A80000FBECDBFCF91DF911F910F91FF90EF90BF
:102A9000DF90BF90AF909F908F900895CF92DF927C
:102AA000EF92FF920F931F93CF93DF9300E4C02E1A
:102AB0000FE1D02EC0EADFE00E94C0090E94F618A4
:102AC00064E570E00E947E18E82E0E94F61860E32C
:102AD00070E00E947E18F82E0E94F61862E370E003
:102AE0000E947E18082F10E08E2D6F2D412F21E0BF
:102AF0000E94400F0E94150AC6010197F1F71F5F5F
:102B0000011790F710E08E2D6F2D412F20E00E94CD
:102B1000400F0E94150ACE010197F1F71F5F0117C0
:102B200090F78091FB01882339F21092FB01DF912D
:102B3000CF911F910F91FF90EF90DF90CF9008956C
:102B40000F93909300048093FF03609301044093DC
:102B500002042093030400930404109205040F91CF
:102B60000895BF92CF92DF92EF92FF920F931F933F
:102B7000CF93DF93F82EE62E5FE2561708F45DC080
:102B80008091010490E08F0D911D843591050CF02A
:102B900054C080910204883008F04FC08091050431
:102BA000882309F04AC080910304481720F08091DF
:102BB0000404841708F44EE200E0C42EDD242FC084
:102BC000809103049601281B3109842F90E0AC0109
:102BD000249FC001259F900D349F900D1124800FDC
:102BE000911DE091FF03F0910004E80FF91FE491BB
:102BF00010E0CE2FD0E00EC0612F6E0DAE01012E81
:102C000002C0559547950A94E2F741708B2D0E94BA
:102C1000010F1F5F80910204181770F30F5FB02E31
:102C2000BF0C40910104041758F24F0D209102048B
:102C30002E0D8F2D6E2D0E942F09DF91CF911F91A8
:102C40000F91FF90EF90DF90CF90BF9008950F937A
:102C50001F93CF93DF93082F262F142F6091020428
:102C6000683008F06AC080910304481720F0809112
:102C70000404841708F41EE2C22FD0E0E62FF0E02F
:102C8000319680E390E0BF010E947E18C617D707F7
:102C90000CF053C040910104842F90E0800F911DEF
:102CA000843591050CF049C0CE9FB001CF9F700DC7
:102CB000DE9F700D1124400F2196CE9F9001CF9F73
:102CC000300DDE9F300D11242197802F0E942F0997
:102CD00084E590E0C89FD001C99FB00DD89FB00D8A
:102CE000112450E0612F70E022C0809103049B0109
:102CF000281B3109892F90E0FC012E9FC0012F9FD6
:102D0000900D3E9F900D1124850F911DE091FF03C2
:102D1000F0910004E80FF91F8491E091FB03F0911A
:102D2000FC03EA0FFB1FE40FF11D80835F5F452F5B
:102D3000400F909101045917C0F2DF91CF911F917C
:102D40000F9108950F931F93CF93DF93182F062FA2
:102D5000EA0180910204883020F5FE012196449119
:102D60004423F9F0812F602F0E94271680910104DF
:102D70008F5F180F815090E0810F911D8435910570
:102D800014F00F5F10E0202F30E06091020470E03B
:102D90006F5F7F4F80E390E00E947E182617370711
:102DA000E4F2DF91CF911F910F9108950F931F933C
:102DB000CF93DF93182F062FEA0180910204883009
:102DC00008F123C0812F602F0E94271680910104F3
:102DD0008F5F180F815090E0810F911D8435910510
:102DE00014F00F5F10E0202F30E06091020470E0DB
:102DF0006F5F7F4F80E390E00E947E1826173707B1
:102E000024F4219648814423E9F6DF91CF911F9164
:102E10000F910895682F70E083E0660F771F8A9501
:102E2000E1F780E043E528E00E94D50E08950F9376
:102E30001F938C010E947C0980E065E0A8010E943C
:102E4000A2160E94150A1F910F9108950F931F93C8
:102E50008C010E947C0980E065E0A8010E94D616E2
:102E60000E94150A1F910F9108956CD008F481E01B
:102E7000089594D088F09F5790F0B92F9927B751B3
:102E8000A0F0D1F0660F771F881F991F1AF0BA952E
:102E9000C9F712C0B13081F09BD0B1E0089598C05D
:102EA000672F782F8827B85F39F0B93FCCF3869524
:102EB00077956795B395D9F73EF490958095709581
:102EC00061957F4F8F4F9F4F0895E89409C097FBFE
:102ED0003EF490958095709561957F4F8F4F9F4FF1
:102EE0009923A9F0F92F96E9BB279395F695879535
:102EF00077956795B795F111F8CFFAF4BB0F11F4F8
:102F000060FF1BC06F5F7F4F8F4F9F4F16C088239E
:102F100011F096E911C0772321F09EE8872F762FD4
:102F200005C0662371F096E8862F70E060E02AF015
:102F30009A95660F771F881FDAF7880F9695879501
:102F400097F90895990F0008550FAA0BE0E8FEEFD6
:102F500016161706E807F907C0F012161306E4075D
:102F6000F50798F0621B730B840B950B39F40A2656
:102F700061F0232B242B252B21F408950A2609F434
:102F8000A140A6958FEF811D811D089557FD905892
:102F9000440F551F59F05F3F71F04795880F97FB1D
:102FA000991F61F09F3F79F08795089512161306D7
:102FB0001406551FF2CF4695F1DF08C01616170606
:102FC0001806991FF1CF869571056105089408953B
:102FD000E894BB2766277727CB0197F90895B2DFDE
:102FE00008F48FEF08950BD078C069D028F06ED028
:102FF00018F0952309F05AC05FC01124EACFC6DF4C
:10300000A0F3959FD1F3950F50E0551F629FF001FB
:10301000729FBB27F00DB11D639FAA27F00DB11D54
:10302000AA1F649F6627B00DA11D661F829F2227DD
:10303000B00DA11D621F739FB00DA11D621F839F64
:10304000A00D611D221F749F3327A00D611D231F3A
:10305000849F600D211D822F762F6A2F11249F5788
:1030600050408AF0E1F088234AF0EE0FFF1FBB1FAB
:10307000661F771F881F91505040A9F79E3F51054A
:1030800070F014C0A6CF5F3FECF3983EDCF386955A
:1030900077956795B795F795E7959F5FC1F7FE2BF5
:1030A000880F911D9695879597F9089597F99F67D1
:1030B00080E870E060E008959FEF80EC08950024C0
:1030C0000A941616170618060906089500240A948D
:1030D00012161306140605060895092E0394000C13
:1030E00011F4882352F0BB0F40F4BF2B11F460FFA2
:1030F00004C06F5F7F4F8F4F9F4F089597FB092E3E
:1031000007260AD077FD04D00CD006D000201AF490
:10311000709561957F4F0895F6F7909581959F4F33
:103120000895AA1BBB1B51E107C0AA1FBB1FA6170E
:10313000B70710F0A61BB70B881F991F5A95A9F760
:1031400080959095BC01CD010895A0E0B0E0EBEA38
:10315000F8E10C94F21BEC01A880B980CA80DB80F6
:10316000A114B104C104D10441F484E2A82E89ED74
:10317000B82E8BE5C82E87E0D82EC601B5012DE10B
:1031800033EF41E050E00E94CF1B27EA31E440E0FA
:1031900050E00E94B01B7B018C01C601B5012DE1FE
:1031A00033EF41E050E00E94CF1BCA01B9012CEE81
:1031B00034EF4FEF5FEF0E94B01B6E0D7F1D801F3D
:1031C000911F97FF04C06150704080409048688311
:1031D00079838A839B839B013F77C901CDB7DEB793
:1031E000EAE00C940E1C0E94A518089580EF91E06F
:1031F0000E94A5180895A0E0B0E08093F00190939C
:10320000F101A093F201B093F3010895FB01DC01F9
:1032100002C005900D9241505040D8F70895AEE09D
:10322000B0E0E5E1F9E10C94F81B0D891E8986E018
:103230008C831A8309838FEF9FE79E838D839E0182
:10324000275E3F4FCE0101966F89788DA9010E94BC
:1032500033192F813885020F131FF80110822E9623
:10326000E4E00C94141CABE0B0E0E9E3F9E10C9469
:10327000EA1B3C012B015A01FC0117821682838153
:1032800081FD03C06FEF7FEFC6C19AE0892E1E015A
:103290000894211C311CF3012381F20123FD859147
:1032A00023FF81912F01882309F4B2C1853239F4BB
:1032B00023FD859123FF81912F01853229F490E030
:1032C000B3010E94261BE7CF982FFF24EE249924F8
:1032D000FFE1FF15D0F09B3269F09C3228F4903268
:1032E00059F0933291F40EC09D3249F0903369F455
:1032F00041E024C052E0F52A84E0F82A28C098E092
:10330000F92A25C0E0E1FE2A22C0F7FC29C0892F56
:1033100080538A3070F4F6FE05C0989C902C1124DE
:10332000980E15C0E89CE02C1124E80EF0E2FF2A6C
:103330000EC09E3229F4F6FC6BC140E4F42A07C0AB
:103340009C3619F450E8F52A02C0983649F4F20187
:1033500023FD959123FF91912F01992309F0B8CF77
:10336000892F8554833018F08052833038F444E03C
:1033700050E0A40EB51E5FE359830FC0933631F0C1
:10338000933779F0933509F056C020C0F50180815C
:10339000898342E050E0A40EB51E610101E010E017
:1033A00012C0F501C080D180F6FC03C06FEF7FEF43
:1033B00002C0692D70E042E050E0A40EB51EC601C7
:1033C0000E941B1B8C015FE7F52214C0F501C08031
:1033D000D180F6FC03C06FEF7FEF02C0692D70E073
:1033E00042E050E0A40EB51EC6010E94101B8C01E5
:1033F00050E8F52AF3FE07C01AC080E290E0B3015E
:103400000E94261BEA948E2D90E008171907A8F356
:103410000EC0F601F7FC8591F7FE81916F0190E0F7
:10342000B3010E94261BE110EA94015010400115DF
:10343000110579F7EAC0943611F0993669F5F7FE6F
:1034400008C0F501208131814281538184E090E000
:103450000AC0F501808191819C01442737FD409588
:10346000542F82E090E0A80EB91E9FE6F92257FF84
:1034700009C050954095309521953F4F4F4F5F4F74
:10348000E0E8FE2ACA01B901A1012AE030E00E9469
:10349000521BD82ED21840C0953729F41F2D1F7EFD
:1034A0002AE030E01DC01F2D197F9F3661F0903754
:1034B00020F4983509F0ACC00FC0903739F0983738
:1034C00009F0A6C004C028E030E00AC0106114FD75
:1034D000146020E130E004C014FD166020E132E009
:1034E00017FF08C0F501608171818281938144E0FA
:1034F00050E008C0F50180819181BC0180E090E03E
:1035000042E050E0A40EB51EA1010E94521BD82E2D
:10351000D2188FE7F82EF122F6FE0BC05EEFF522EF
:10352000D91438F4F4FE07C0F2FC05C08FEEF8227F
:1035300002C01D2D01C0192DF4FE0DC0FE01ED0DC0
:10354000F11D8081803319F499EEF92208C01F5FC4
:10355000F2FE05C003C08F2D867809F01F5F0F2D86
:10356000F3FC14C0F0FE0FC01E1510F09D2C0BC014
:103570009D2C9E0C911A1E2D06C080E290E0B30196
:103580000E94261B1F5F1E15C0F304C01E1510F4F9
:10359000E11A01C0EE2404FF0FC080E390E0B30104
:1035A0000E94261B02FF1DC001FD03C088E790E0BA
:1035B0000EC088E590E00BC0802F867891F001FF67
:1035C00002C08BE201C080E2F7FC8DE290E0B30123
:1035D0000E94261B06C080E390E0B3010E94261BD8
:1035E0009A94D914C0F3DA94F101ED0DF11D8081A4
:1035F00090E0B3010E94261BDD20A9F706C080E2FF
:1036000090E0B3010E94261BEA94EE20C1F743CE5E
:10361000F30166817781CB012B96E2E10C94061CC5
:10362000FC010590615070400110D8F7809590958D
:103630008E0F9F1F0895FC01615070400190011092
:10364000D8F7809590958E0F9F1F08950F931F9325
:10365000CF93DF938C01EB018B8181FF1BC082FF35
:103660000DC02E813F818C819D812817390764F41C
:10367000E881F9810193F983E88306C0E885F9853B
:10368000802F0995892B31F48E819F8101969F832C
:103690008E8302C00FEF1FEFC801DF91CF911F9102
:1036A0000F910895FA01AA27283051F1203181F1B4
:1036B000E8946F936E7F6E5F7F4F8F4F9F4FAF4F3A
:1036C000B1E03ED0B4E03CD0670F781F891F9A1F4D
:1036D000A11D680F791F8A1F911DA11D6A0F711D01
:1036E000811D911DA11D20D009F468943F912AE00D
:1036F000269F11243019305D3193DEF6CF010895F5
:10370000462F4770405D4193B3E00FD0C9F7F6CF25
:10371000462F4F70405D4A3318F0495D31FD4052ED
:10372000419302D0A9F7EACFB4E0A6959795879583
:1037300077956795BA95C9F7009761057105089562
:103740009B01AC010A2E069457954795379527950E
:10375000BA95C9F7620F731F841F951FA01D0895A6
:10376000629FD001739FF001829FE00DF11D649F65
:10377000E00DF11D929FF00D839FF00D749FF00DF1
:10378000659FF00D9927729FB00DE11DF91F639F92
:10379000B00DE11DF91FBD01CF011124089597FB64
:1037A000092E05260ED057FD04D04BD00AD0001CA0
:1037B00038F450954095309521953F4F4F4F5F4FCE
:1037C0000895F6F790958095709561957F4F8F4F8E
:1037D0009F4F08952F923F924F925F926F927F92E8
:1037E0008F929F92AF92BF92CF92DF92EF92FF9211
:1037F0000F931F93CF93DF93CDB7DEB7CA1BDB0BBD
:103800000FB6F894DEBF0FBECDBF09942A88398861
:1038100048885F846E847D848C849B84AA84B98468
:10382000C884DF80EE80FD800C811B81AA81B98174
:10383000CE0FD11D0FB6F894DEBF0FBECDBFED0188
:103840000895A1E21A2EAA1BBB1BFD010DC0AA1FE1
:10385000BB1FEE1FFF1FA217B307E407F50720F0F9
:10386000A21BB30BE40BF50B661F771F881F991F74
:103870001A9469F760957095809590959B01AC01BD
:0A388000BD01CF010895F894FFCFB9
:10388A0050726573732079656C6C6F772020207491
:10389A006F2073746172740025640047414D45209E
:1038AA004F5645520050726573732079656C6C6F80
:1038BA00772020746F207265737461727400010638
:1038CA00030A0000000000000000010000010205D8
:1038DA0002010100030300010502040205010104BB
:1038EA0004010105010501050000030300000402AB
:1038FA000C14020C24020C34020C44020C040704BB
:10390A000C070C1C070C2C070C3C070C4C07044832
:10391A00656C6C6F20576F726C642100524543547A
:10392A00414E474C452044454D4F00676C63645FE8
:10393A00647261775F7265637400676C63645F6465
:10394A007261775F726563745F746869636B00673D
:10395A006C63645F647261775F726563745F7368D6
:10396A0061646F77003132330034353600256400E4
:04397A000100000048
:00000001FF
