:100000000C94DC050C94F9050C94F9050C94F90595
:100010000C94F9050C94F9050C94F9050C94F90568
:100020000C94F9050C94F9050C94F9050C94F90558
:100030000C94F9050C94F9050C94F9050C94F90548
:100040000C94F9050C94F9050C94F9050C94F90538
:100050000C94F9050C94F9050C94F9050C94F90528
:100060000C94F9050C94F905000000000000005FF5
:1000700000000007000700147F147F14242A7F2A41
:10008000122313086462364955225000050300000C
:10009000001C2241000041221C00082A1C2A0808DA
:1000A000083E0808005030000008080808080060F2
:1000B00060000020100804023E5149453E00427F86
:1000C000400042615149462141454B311814127F8D
:1000D0001027454545393C4A494930017109050316
:1000E0003649494936064949291E0036360000007E
:1000F000563600000008142241141414141441222E
:100100001408000201510906324979413E7E11115D
:10011000117E7F494949363E414141227F4141227A
:100120001C7F494949417F090901013E4141513242
:100130007F0808087F00417F41002040413F017F48
:10014000081422417F404040407F0204027F7F0428
:1001500008107F3E4141413E7F090909063E415159
:10016000215E7F09192946464949493101017F012C
:10017000013F4040403F1F2040201F7F2018207F2C
:100180006314081463030478040361514945430070
:10019000007F4141020408102041417F0000040219
:1001A0000102044040404040000102040020545439
:1001B00054787F48444438384444442038444448C0
:1001C0007F3854545418087E090102081454543CD2
:1001D0007F0804047800447D40002040443D000036
:1001E0007F10284400417F40007C041804787C087C
:1001F00004047838444444387C1414140808141453
:10020000187C7C080404084854545420043F44409B
:10021000203C4040207C1C2040201C3C4030403C86
:1002200044281028440C5050503C4464544C440022
:100230000836410000007F00000041360800080831
:100240002A1C08081C2A0808000000000000000002
:10025000000000000000000000000000000000009E
:10026000000000000000000000000000000000008E
:1002700000000000000000000000008080C0C0C03E
:10028000E0E0E0E0E0E0E0E0E0E0E0E0E0E0C0C0AE
:10029000C08080000000000000000000000000009E
:1002A000000000000000000000000000000000004E
:1002B000000000000000000000000000000000003E
:1002C000000000000000000000000000000000002E
:1002D000000000000000000000000000000000001E
:1002E000000000000000000000000000000000000E
:1002F0000080C0E0F0F8FCFCFEFFFFFFFFFFFFFF07
:10030000FFFFFFFFFFFFFFFFFFFFFFFFFFFFFFFFFD
:10031000FFFFFFFFFFFEFCFCF8F0E0C080000000E4
:1003200000000000000000000000000000000000CD
:1003300000000000000000000000000000000000BD
:1003400000000000000000000000000000000000AD
:10035000000000000000000000000000000000009D
:100360000000000000000000000000000080F0FC21
:10037000FEFFFFFFFFFFFFFFFFFFFFFFFFFFFFFF8E
:10038000FFFFFFFFFFFFFFFFFFFFFFFFFFFFFFFF7D
:10039000FFFFFFFFFFFFFFFFFFFFFFFFFFFEFCF080
:1003A000C00000000000000000000000000000008D
:1003B000000000000000000000000000000000003D
:1003C000000000000000000000000000000000002D
:1003D000000000000000000000000000000000001D
:1003E000000000000000000000000000FCFFFFFF14
:1003F000FFFFFFFFFFFFFFFFFFFFFFFFFFFFFF1FED
:1004000007030101000000000000000103071FFFB7
:10041000FFFFFFFFFFFFFFFFFFFFFFFFFFFFFFFFEC
:10042000FFFC0000000000000000000000000000D1
:1004300000000000000000000000000000000000BC
:1004400000000000000000000000000000000000AC
:10045000000000000000000000000000000000009C
:100460000000000000000000000000001FFFFFFF70
:10047000FFFFFFFFFFFFFFFFFFFFFFFFFFFFFFFC8F
:10048000F0E0C08080000000000080C0C0F0FCFFF1
:10049000FFFFFFFFFFFFFFFFFFFFFFFFFFFFFFFF6C
:1004A000FF3F00000000000000000000000000000E
:1004B000000000000000000000000000000000003C
:1004C000000000000000000000000000000000002C
:1004D000000000000000000000000000000000001C
:1004E0000000000000000000000000000001071FE5
:1004F0007FFFFFFFFFFFFFFFFFFFFFFFFFFFFFFF8C
:10050000FFFF7F0F0300000000010F3FFFFFFFFF11
:10051000FFFFFFFFFFFFFFFFFFFFFFFFFF7F1F0743
:1005200001000000000000000000000000000000CA
:1005300000000000000000000000000000000000BB
:1005400000000000000000000000000000000000AB
:10055000000000000000000000000000000000009B
:10056000000000000000000000000000000000008B
:1005700000000103070F1F3F3F7FFFFFFFFFFF7FCB
:100580000F0300000000000000000000010F3FFF0B
:10059000FFFFFFFF7F7F3F1F0F07030100000000E9
:1005A000000000000000000000000000000000004B
:1005B000000000000000000000000000000000003B
:1005C000000000000000000000000000000000002B
:1005D000000000000000000000000000000000001B
:1005E000000000000000000000000000000000000B
:1005F00000000000000000000000000000010100F9
:1006000000000000000000000000000000000001E9
:1006100001010000000000000000000000000000D8
:1006200000000000000000000000000000000000CA
:1006300000000000000000000000000000000000BA
:10064000000000000000000000E0F0380C0C0C0C72
:1006500038F8C000001F7FE080808080E0FF1F002E
:100660000000000101010101000000000010181845
:10067000FCFC00000000000000000000FFFF000084
:100680000000000000000000010100000000000068
:1006900000081C0C0C0C0C8CF8F0000000F0F89C0E
:1006A0008C86868383800000000101010101010125
:1006B0000101000000081C0C0C0C0C8CF8F0000070
:1006C0000080C080818383C7FF7C0000000001019F
:1006D000010101010000000000000080C07038FC32
:1006E000FC000000001C1E1B111810FFFF1018005A
:1006F0000000000000000001010000000000F4FC08
:100700001C0C0C0C0C0000000080C383838383C787
:10071000FE7800000000000101010101000000005E
:1007200000C0F0781C0C0C0C08000000003FFFC358
:10073000838383C3FE7C00000000000101010101EE
:1007400000000000000C0C0C0C8CCC7C3C0C00005D
:10075000000080F07C0F0300000000000000010199
:10076000000000000000000000F0F81C0C0C0C0C55
:10077000F8F0000000F8FF8F0706068FFFF8000072
:1007800000000103030303010100000000F0F81C56
:100790000C0C0C1CF8E000000001878E8C8C8CEE99
:1007A0007F1F0000000001010101010000000000A6
:1007B000000000000000005F0000000700070014B8
:1007C0007F147F14242A7F2A122313086462364977
:1007D0005522500005030000001C22410000412268
:1007E0001C00082A1C2A0808083E0808005030008F
:1007F00000080808080800606000002010080402D3
:100800003E5149453E00427F4000426151494621E8
:1008100041454B311814127F1027454545393C4A54
:1008200049493001710905033649494936064949A4
:10083000291E00363600000056360000000814223B
:100840004114141414144122140800020151090621
:10085000324979413E7E1111117E7F494949363E28
:10086000414141227F4141221C7F494949417F0941
:100870000901013E414151327F0808087F00417F54
:1008800041002040413F017F081422417F40404009
:10089000407F0204027F7F0408107F3E4141413EB9
:1008A0007F090909063E4151215E7F091929464603
:1008B0004949493101017F01013F4040403F1F202C
:1008C00040201F7F2018207F6314081463030478DE
:1008D0000403615149454300007F4141020408106F
:1008E0002041417F0000040201020440404040409A
:1008F000000102040020545454787F48444438389E
:1009000044444420384444487F3854545418087EA2
:10091000090102081454543C7F0804047800447D03
:1009200040002040443D00007F10284400417F40AB
:10093000007C041804787C08040478384444443863
:100940007C14141408081414187C7C080404084847
:1009500054545420043F4440203C4040207C1C2000
:1009600040201C3C4030403C44281028440C50504F
:10097000503C4464544C44000836410000007F0061
:1009800000004136080008082A1C08081C2A08082C
:100990000600000000000000000F00000F00000F24
:1009A00000000F0000000000000000000000000038
:1009B0000000000000000000000000000000070030
:1009C000001E00E01F00FF1FF8FF03FF1F00FF01D4
:1009D000000F000000000000000000000000000008
:1009E0000000000000000000000000000E000000F9
:1009F000C07F00F8FF01FCFF07FCFF073E800F0EE1
:100A0000000E0E000E0E000E1E800FFCFF07FCFFF6
:100A100007F8FF01C07F000000000E00000070001A
:100A20000E38000E38000E1C000E0E000EFEFF0FDA
:100A3000FEFF0FFEFF0FFEFF0F00000E00000E0076
:100A4000000E00000E0000000E00000060000F7895
:100A5000800F7CC00F7CE00F1EF00F0EF80E0E7C96
:100A60000E0E3E0E1E1F0EFE0F0EFC070EF8030E9E
:100A7000F0010E0000000E000000308001388003FD
:100A80003C80073C800F1E000F0E0E0E0E0E0E0E49
:100A90000E0E1E1F0FFEFF0FFCFB07FCF903F0E01C
:100AA000010000000F00000000F00000F80000FE50
:100AB0000080EF00C0E700F0E1007CE0003EE000D5
:100AC000FEFF0FFEFF0FFEFF0FFEFF0F00E0000016
:100AD000E0000E000000008001F88703FE8707FE9B
:100AE000870FFE070F0E030E8E030E8E030E8E076A
:100AF0000F8EFF070EFF070EFE0300FC0000000034
:100B00000E000000C07F00F0FF01F8FF07FCFF07A8
:100B10003E0E0F0E070E0E070E0E070E1E0F0F3E97
:100B2000FF0F3CFE0738FE0330F8010000000E0006
:100B300000000E00000E00000E00000E000F0EE080
:100B40000F0EF80F0EFE0F8EFF00CE0F00FE0300FB
:100B5000FE00003E00001E00000000000E0000002D
:100B6000F0E001F8FB03FCFB07FEFF0F1E1F0F0E5A
:100B70000E0E0E0E0E0E0E0E1E1F0FFEFF0FFCFBB6
:100B800007FCFB03F0E0010000000E000000F08312
:100B900001F88703FC8F07FE9F0F1E1E0F0E1C0E11
:100BA0000E1C0E0E1C0E1E8E0FFCFF07FCFF03F822
:100BB000FF01C07F0000000011241FBECFEFD8E06E
:100BC000DEBFCDBF11E0A0E0B1E0E2EDF2E302C094
:100BD00005900D92A636B107D9F713E0A6E6B1E06D
:100BE00001C01D92AE36B107E1F70E94FB050C94DF
:100BF00067190C9400000F931F93229A3B9A439815
:100C00008AB18B798AB98BB184668BB978940E944A
:100C100009070E94E4060E94390788E690E065E033
:100C200047E020E20FE70E94C4120E94D10680E054
:100C300060E044E52FE201E00E94580E80E36AE2A2
:100C40004FE023E00E94580E0E94390713E24E99AC
:100C50000FC00E94E4061150812F6AE24FE023E0AA
:100C600001E00E94580E0E943907123008F412E089
:100C70004D990FC00E94E4061F5F812F6AE24FE08A
:100C800023E001E00E94580E0E943907143408F056
:100C900013E480E060E044E52FE201E00E94580E9A
:100CA0000E943907D4CF982F843508F093E5443556
:100CB00008F043E5603308F06FE2203308F02FE2DC
:100CC000E0916503F09166038081981708F49083A2
:100CD0008281841708F442838181681708F4618354
:100CE0008381821708F423830895E0916503F091CE
:100CF000660383E5808312828FE2818313820895E5
:100D0000E0916503F091660383E5808312828FE2B0
:100D1000818313820895E0916503F0916603108248
:100D200083E5828311828FE2838308959093640325
:100D30008093630370936603609365030895089539
:100D400040E050E020E030E064E580916303909162
:100D500064034530510581F0DC01A20FB31F2C5A0A
:100D60003F4FFC01E20FF31F2455304084E5019012
:100D70000D928150E1F707C08C559E4FDC01862F04
:100D80001D928A95E9F74F5F5F4F2C5A3F4F4630CF
:100D90005105D9F680E060E043E52FE20E9453065A
:100DA0000895E0916303F091640388EF91E0DF011F
:100DB0009C011D9221503040E1F780E060E043E566
:100DC0002FE20E9453060895E0916303F0916403BB
:100DD00088EF91E0DF019C011D9221503040E1F746
:100DE00080E060E043E52FE20E9453060E9439074D
:100DF000089528988EBD0DB407FEFDCF289A08955A
:100E000028985F9880EA9FE00197F1F75F9A289A07
:100E10000895209A239A209A259A209A219A579ADF
:100E2000289A80E58CBD1DBC0E9427078BE691E0C7
:100E300067E671E00E9496060E94E4060895299AEA
:100E40000E94F906089529980E94F90608950E94C3
:100E5000000781E20E94230782E10E9423078CEBB6
:100E60000E94230780E20E9423078CE00E94230750
:100E70000895EF92FF920F931F93CF93DF9300E0BB
:100E800020E030E0C0E0D0E0E0916503F09166033F
:100E900088E0E82EF12CE20EF31E818190E08E15A1
:100EA0009F0554F5838190E08217930764F1802FAA
:100EB00080640E942307E0916503F09166038081BE
:100EC00080680E942307E0916503F091660310811A
:100ED0000CC0E0916303F0916403EC0FFD1FE10F80
:100EE000F11D80810E941F071F5FE0916503F09153
:100EF00066038281811768F70F5FCC5ADF4F063097
:100F000011F09701C1CF0E947506DF91CF911F911B
:100F10000F91FF90EF90089580680E942307089535
:100F2000863010F085E401C080640E942307089594
:100F300080E20E94230708950E94E40684E20E9452
:100F4000230708951F93182F81E20E942307812F02
:100F500080680E94230780E20E9423078CE00E94A1
:100F600023071F910895282F50E070E0681B710936
:100F7000469FC001479F900D569F900D11246FEF23
:100F800070E00E94A215822F860F08952F923F9243
:100F90005F926F927F928F929F92AF92BF92CF9209
:100FA000DF92EF92FF920F931F93DF93CF930F92F5
:100FB000CDB7DEB7882EB62E942EC22E502E01E06D
:100FC0000E94580EDD24D3940C2D10E038010894B3
:100FD00061087108292C332408942108310812C0B3
:100FE0008F2D8F5F6A2D0E94A40B482F8F2D6A2DA5
:100FF0000E94250CE394F3948E2D90E082159305C6
:101000007CF3D3948D2D90E08615970534F4F82C5D
:10101000EE24E394AD2CAB0CEECF03501040852DA5
:1010200090E09C01029FC001039F900D129F900DC4
:1010300011246FEF70E00E94A215262F0F5F1F4F43
:10104000862F90E08017910714F02C2D23506C2DE3
:101050006B0D982D9250990D162F121B6250125045
:10106000892F492F212F01E099830E941C0F1150D5
:10107000B3949981892F612F492F2B2D00E00E9475
:101080001C0F0E9439070F90CF91DF911F910F9194
:10109000FF90EF90DF90CF90BF90AF909F908F9098
:1010A0007F906F905F903F902F9008957F928F92E6
:1010B0009F92AF92BF92CF92DF92EF92FF920F93E7
:1010C0001F93782E862E942EA22EB02EFE2CEE206C
:1010D00011F4FF24F39410E008C0872D682D492DEA
:1010E0002A2D0B2D0E94C6071F5F1F15B0F3C114D8
:1010F000D10409F441C0B60180E090E00E94891457
:101100005B016C0120E030E04AE755E40E941715CE
:101110007B018C0120E030E040E85FE30E9459143D
:1011200088231CF461E070E024C0C801B70120E00E
:101130003FEF4FE757E40E9413151816B4F4C601A9
:10114000B50120E030E040E251E40E9417150E9412
:101150005D1480E991E005C0FC013197F1F7615021
:10116000704061157105C1F707C0C801B7010E9441
:101170005D14CB010197F1F71F910F91FF90EF9054
:10118000DF90CF90BF90AF909F908F907F90089509
:10119000DF92EF92FF920F931F93E82EF62ED42E3C
:1011A000122F402F622F6250409580E00E94B307BB
:1011B000F80E181B12508E2D6F2D4D2D212F01E092
:1011C0000E94C10E1F910F91FF90EF90DF90089544
:1011D000CF92DF92EF92FF920F931F93C82ED62EDD
:1011E000E42E122FF02E01E00E94580E612F625063
:1011F000F09480E04F2D0E94B307682F6F5F6D0D54
:101200009EEFE90E181B12508C2D8F5F4E2D212F53
:101210000E94C10E1F910F91FF90EF90DF90CF9031
:101220000895EF92FF920F931F93F82EE62E122F40
:10123000233060F080E0642F402F0E94B307482FD6
:101240008F2D6E2D212F01E00E94C10E1F910F9155
:10125000FF90EF900895CF92DF92EF92FF920F935D
:101260001F93C82EE62E142FF22ED02E82E0821766
:10127000A0F48C2D01E00E94580E125080E0612FE6
:101280004D2D0E94B307482FE3948EEFF80E8C2D5E
:101290008F5F6E2D2F2D0E94C10E1F910F91FF9019
:1012A000EF90DF90CF9008950F9390936803809311
:1012B00067036093690340936A0320936B03009371
:1012C0006C0381E080936D030F910895EF920F936B
:1012D00090936803809367036093690340936A0364
:1012E00020936B0300936C03E0926D030F91EF90DA
:1012F00008952F923F924F925F926F927F928F92BA
:101300009F92AF92BF92CF92DF92EF92FF920F9394
:101310001F93DF93CF93CDB7DEB763970FB6F894E3
:10132000DEBF0FBECDBF482EE62E342F50916B038B
:10133000451720F080916C03841708F43EE28091F9
:101340006D03882309F058C0042DFF24432E552433
:10135000602E77248E2C992449C04F2D50E0809127
:101360006B039201281B3109892F90E0BC01269F55
:10137000C001279F900D369F900D1124840F951F5B
:10138000E0916703F0916803E80FF91FE4911E2DC7
:10139000222433245A01A60CB71CCE2EDD2474E57A
:1013A000A716B1040CF070C1C101880D991DC0973A
:1013B0000CF06AC1C601022C02C0959587950A946B
:1013C000E2F780FF04C0802F612F41E003C0802F2F
:1013D000612F40E00E94250C0894211C311C1F5FE6
:1013E00088E028163104D9F6F3940F5F90916903D1
:1013F000F91608F4B2CF49C1813009F09CC02091A0
:101400006A03822F90E08770907026952695269526
:10141000892B09F02F5F2C83809169039C81989F11
:10142000802D11248F5F90E0232F30E0251B3109A0
:10143000DC01A29FC001A39F900DB29F900D1124CB
:10144000E0916703F0916803E80FF91FB491BB8343
:101450003C81232F30E03A8329833F010894611CAB
:10146000711C542C88249924E98A442D50E05C870F
:101470004B874FC0F5018491E88686011B8A1A8A42
:10148000282E332429853A85243531050CF0FCC0FB
:101490002A898A899B898E0D9F1DC0970CF0F4C004
:1014A00080916A0390E00817190794F4C101022E95
:1014B00002C0959587950A94E2F76885620F80FFD0
:1014C00003C0852D41E002C0852D40E00E94250C1F
:1014D0004A895B894F5F5F4F5B8B4A8B0F5F1F4F62
:1014E0004830510579F6439468E070E0E60EF71E47
:1014F000C60ED71E0894A11CB11C7C81471608F4A7
:10150000B9CF0894811C911C89819A81680E791E3B
:1015100053949B81891608F0B8C0898990E07C01BA
:1015200053014424CC24DD24AB85BC85A80DB91D12
:10153000BA87A987E2CF823009F0A6C0B0906A03CB
:10154000B694B694B694B39440916903232F30E0D7
:10155000251B3109B49E802D112490E0FC012E9FA3
:10156000C0012F9F900D3E9F900D11248090670326
:1015700090906803880E991E542E30E050E0415040
:101580005040642F631BE0E020E090E007C0892F0B
:10159000861BF401E80FF11DE0812F5F960F2B15DC
:1015A000B0F3EE2321F45A9411F03F5FEACFFF2409
:1015B0006624CC24DD24242D30E0388B2F8758C0BE
:1015C0008A2D90E02091690330E04E815F81429F37
:1015D000F001439FF00D529FF00D1124E80FF91F09
:1015E000E80DF91DE49186011B8A1A8A6F857889B6
:1015F000680F791F7E876D872E2E33248D859E85FB
:10160000843591050CF040C02A898A899B898E0D0A
:101610009F1DC097CCF580916A0390E008171907C9
:1016200094F4C101022E02C0959587950A94E2F7C1
:101630006D81620F80FF03C0872D41E002C0872DBE
:1016400040E00E94250CEA89FB893196FB8BEA8BEE
:101650000F5F1F4F389791F6A3947394A51408F465
:10166000AFCF639428E030E0E20EF31EC20ED31E2B
:101670006B1410F0952D09C0462D50E05F834E830A
:10168000ED82742CAA24EACF90E0892F63960FB6DE
:10169000F894DEBF0FBECDBFCF91DF911F910F91A8
:1016A000FF90EF90DF90CF90BF90AF909F908F9082
:1016B0007F906F905F904F903F902F9008950F9381
:1016C0001F93CF93DF93182F062FEA01862F90E008
:1016D00040916A032FE230E0241B310928173907B3
:1016E00064F0FE0121964491442339F0812F602F4C
:1016F0000E9479098F5F180FF4CFDF91CF911F916E
:101700000F9108950F931F93CF93DF93182F062FF8
:10171000EA01862F90E040916A032FE230E0241B1B
:1017200031092817390744F40AC0812F602F0E941D
:1017300079098F5F180F219648814423B1F7DF9113
:10174000CF911F910F910895482F8435F0F46033A5
:10175000E0F4862F86958695869590E024E530E026
:10176000829FF001839FF00D929FF00D1124E40FF2
:10177000F11DE559FE4F808190E0677002C095959C
:1017800087956A95E2F78170089580E00895BC011D
:10179000809163039091640348EF51E00E942A1600
:1017A0000E948B0608950F931F93082F162F8435E0
:1017B000E8F46033D8F4402F212F0E945306E12F24
:1017C000E695E695E69584E5E89FF0011124E00FA3
:1017D000F11DE559FE4F177081E090E002C0880FBF
:1017E000991F1A95E2F72081282720831F910F91D6
:1017F0000895DF92EF92FF920F931F93CF93DF93A1
:10180000D62E082FE82EFF24E40EF11CC62FD0E0C0
:10181000C20FD11D0BC0802F612F0E94D30B1F5F01
:10182000812F90E08C179D07B4F30F5F802F90E01D
:101830008E159F0514F41D2DF3CFDF91CF911F91CD
:101840000F91FF90EF90DF900895A82F762F8435A9
:10185000D0F56033C0F5562F56955695569590E0C5
:10186000262F30E04423A1F0E4E55E9FF00111242F
:10187000E80FF91FE559FE4F2770307081E090E0C6
:1018800002C0880F991F2A95E2F72081282B14C0E7
:10189000E4E55E9FF0011124E80FF91FE559FE4FC2
:1018A0002770307081E090E002C0880F991F2A9560
:1018B000E2F780952081282320838A2F672F4A2FE3
:1018C000272F0E94530608953F924F925F926F9286
:1018D0007F928F929F92AF92BF92CF92DF92EF92C0
:1018E000FF920F931F93DF93CF9300D000D000D0CF
:1018F000CDB7DEB7B82EE62EF42E622E042F10E000
:10190000641B480F2F2D2E0D8F190E9453068E2C0D
:1019100099242401401A510A6801C80CD91C08C036
:101920008B2D642D462D0E94250C0894411C511CC2
:10193000C414D504ACF7DD24D394DF18000F111FB5
:10194000402E4194CF2CAA2400E010E083E0782EB2
:101950008E2D90E09C01215030403A832983FC0178
:101960003196FC83EB8354C0D7FC04C0CA94F2E0E8
:101970004F0ED40CA3948C2D992787FD909594013C
:10198000281B390B3E832D837C01E80CF91C3A2C73
:101990003B0C5B2C5A180FC0832D6D81462D0E9485
:1019A000250C852D6D81462D0E94250C8D819E81F3
:1019B00001969E838D83ED81FE81EE16FF0664F70E
:1019C00029813A81201B310B3E832D83EB80FC80E3
:1019D000E00EF11E3C2C3B0C5B2C5C180FC0832DE1
:1019E0006D81462D0E94250C852D6D81462D0E940E
:1019F000250C8D819E8101969E838D83ED81FE81D4
:101A0000EE16FF0664F7D70C0F5F1F4FF2E07F0E54
:101A1000AC140CF4A9CF26960FB6F894DEBF0FBE17
:101A2000CDBFCF91DF911F910F91FF90EF90DF908D
:101A3000CF90BF90AF909F908F907F906F905F906E
:101A40004F903F9008957F928F929F92AF92BF9256
:101A5000CF92DF92EF92FF920F931F93A82EB62E94
:101A6000C22E99249394941A842F90E0880F991F82
:101A7000782E7194D42EEA2CE41A062F041BF42E2F
:101A8000FA0C142F160F8E2D602F4F2D212F0E9430
:101A900053068A2D612F4C2D0E94250C8A2D602F14
:101AA0004C2D0E94250C8F2D6B2D4C2D0E94250C4A
:101AB0008E2D6B2D4C2D0E94250CEE2423E0822EC2
:101AC00042C097FC04C0DA9482E0780E970CE3944D
:101AD000980CFE2CFA0C1D2D1B0D8F2D612F4C2DFB
:101AE0000E94250C0A2D0E19802F612F4C2D0E946B
:101AF000250C1B2D1D198F2D612F4C2D0E94250C9F
:101B0000802F612F4C2D0E94250CFD2CFA0C1E2DD0
:101B10001B0D8F2D612F4C2D0E94250C0A2D0D19A8
:101B2000802F612F4C2D0E94250C1B2D1E198F2DEF
:101B3000612F4C2D0E94250C802F612F4C2D0E946F
:101B4000250C82E0880EED140CF4BBCF1F910F9191
:101B5000FF90EF90DF90CF90BF90AF909F908F90CD
:101B60007F9008952F923F924F925F926F927F9253
:101B70008F929F92AF92BF92CF92DF92EF92FF929D
:101B80000F931F93DF93CF9300D00F92CDB7DEB7A3
:101B9000B82EA62E442E2983902E8E2D5C2C002349
:101BA00011F499249394882309F481E000E010E073
:101BB000CB2CDD241601240C311C89808A0C682E64
:101BC000772418C06A816A0D8E2D452D0E94250C40
:101BD0008E2D6F2D452D0E94250C8A819B810196AB
:101BE0009B838A83FA94EA81FB81E615F70554F317
:101BF0000F5F1F4FC8018C0D9D1D8215930534F496
:101C0000F82C1B821A82EB2CE00EECCF00E010E0E7
:101C1000CA2CDD243601F9816F0E711C342C3B0C6B
:101C2000892C992418C08A818B0D6F2D452D0E9417
:101C3000250C8E2D6F2D452D0E94250C8A819B81B0
:101C400001969B838A83EA94EA81FB81E815F90572
:101C500054F30F5F1F4FC8018C0D9D1D861597050E
:101C600034F4E32C1B821A82FA2CF00EECCF4B2DAD
:101C70004150440D2A2D2150F9812F0F8B2D6A2DB3
:101C80000E9453060F900F900F90CF91DF911F91FC
:101C90000F91FF90EF90DF90CF90BF90AF909F900B
:101CA0008F907F906F905F904F903F902F9008950E
:101CB0006F927F928F929F92AF92BF92CF92DF925C
:101CC000EF92FF920F931F93CF93DF93E82EF62EA0
:101CD000A42E722EB02EC0E0D0E0C82EDD24460126
:101CE000840E911CFA940F2D020FF3940DC01E2D3B
:101CF0001C0F812F6F2D4B2D0E94250C812F602FE3
:101D00004B2D0E94250C2196CE018C0D9D1D881512
:101D100099056CF3C0E0D0E0CF2CDD244601870CA0
:101D2000911C0E2D0150602E6A0C0DC01F2D1C0F32
:101D30008E2D612F4B2D0E94250C862D612F4B2D52
:101D40000E94250C2196CE018C0D9D1D88159905AC
:101D50006CF30A0D2F2D2150270D8E2D6F2D402F46
:101D60000E945306DF91CF911F910F91FF90EF904A
:101D7000DF90CF90BF90AF909F908F907F906F90AB
:101D800008952F923F924F925F926F927F928F921F
:101D90009F92AF92BF92CF92DF92EF92FF920F93FA
:101DA0001F93CF93DF93D82EC62E442E322E202E93
:101DB00000E010E0A82EBB243501640E711CE62E55
:101DC000FF244701820E911C14C0C0E0D0E05D2CBE
:101DD000500E07C06C2D6C0F852D422D0E94250CD6
:101DE0002196CE018E0D9F1D881599059CF30F5FDE
:101DF0001F4FC8018A0D9B1D8615970534F34D2D85
:101E00004150440D2C2D2150230D8D2D6C2D0E9401
:101E10005306DF91CF911F910F91FF90EF90DF90CC
:101E2000CF90BF90AF909F908F907F906F905F907A
:101E30004F903F902F9008959F92AF92BF92CF9274
:101E4000DF92EF92FF920F931F93F82EE62ED42E7F
:101E5000122F902EAA2430E0261B310937FF03C031
:101E6000309521953F4F8D2D90E08F19910997FF67
:101E700003C0909581959F4F8217930744F4AA243D
:101E8000A3948E2DEF2CF82E812F1D2DD82EDF142C
:101E900030F48D2DDF2CF82E812F1E2DE82E8F2D66
:101EA0006E2D4D2D212F0E945306CD2CCF18812F42
:101EB00090E08E19910997FF03C0909581959F4FEF
:101EC000B82EE11610F00FEF01C001E01C2D1695A1
:101ED00010C0AA2019F08E2D6F2D02C08F2D6E2DEF
:101EE000492D0E94250C1B1917FF02C0E00E1C0D86
:101EF000F394DF1470F71F910F91FF90EF90DF9034
:101F0000CF90BF90AF909F900895CF92DF92EF92C5
:101F1000FF920F931F93E82ED62E142FF22E0E94BD
:101F2000580E1E0DFD0C8E2D8F5F6F2D412F2F2D06
:101F30000E941C0FD394812F6D2D412F2F2D0E94B5
:101F40001C0F1F910F91FF90EF90DF90CF9008959D
:101F500088E492E00E94C70B0E94390780916601D5
:101F60008823E1F31092660108950F931F93CF9396
:101F7000DF930E94E4060E94390740C080E060E0E1
:101F800042E322E30C2F0E94C6078CE360E042E3A9
:101F90002EE10E94C6078CE363E24CE324E10E9439
:101FA000C607809166018823F9F46496CF3FD10576
:101FB00029F320F310E0012F009580E060E042E378
:101FC00022E30E94C6078CE360E042E32EE1012F8A
:101FD0000E94C6078CE363E24CE324E10E94C6073B
:101FE00080916601882339F010926601DF91CF91CC
:101FF0001F910F9108951C5E1430E9F6C0E0D0E007
:10200000D5CF0F9380EB97E065E047E020E20FE744
:102010000E94C4120E94D10680E060E040E051E0DE
:102020000E94FA130E943907809166018823E1F328
:10203000109266010F910895CF92EF920F93CF9374
:10204000DF9380EB97E065E047E020E20FE70E9436
:10205000C4120E94D10680E060E04DE051E00E9491
:10206000FA130E94390780ED97E020E931E0F90189
:102070003197F1F70197D9F7C0E9D1E00E94E40662
:1020800080E060E044E622E301E00E94580E80E038
:1020900069E04CE151E00E94FA130E94390788E898
:1020A00093E1FE013197F1F70197D9F7809166012D
:1020B000882309F085C00E94E40680E069E04BE2D5
:1020C00051E00E94FA130E94390785E065E040E57F
:1020D0002EE103E056E0E52ECC24C3940E94B20D1D
:1020E0000E94390788E893E1FE013197F1F70197E3
:1020F000D9F780916601882309F062C080E060E032
:1021000044E124E102E032E0E32ECC24C3940E94B7
:10211000B20D0E94390788E893E1FE013197F1F78B
:102120000197D9F780916601882309F049C084E6B8
:102130006AE044E124E105E095E0E92ECC24C39473
:102140000E94B20D0E94390788E893E1FE013197A1
:10215000F1F70197D9F780916601882389F50E94EC
:10216000E40680E069E040E451E00E94FA1380E078
:1021700060E04DE22EE101E00E94850F0E943907E8
:1021800088E893E1FE013197F1F70197D9F7809143
:1021900066018823A9F48FE565E04EE12EE101E0B8
:1021A0000E94850F0E94390788E893E1FE0131976C
:1021B000F1F70197D9F780916601882309F45ECF82
:1021C00010926601DF91CF910F91EF90CF9008951B
:1021D000AF92BF92CF92DF92EF92FF920F93DF9375
:1021E000CF93CDB7DEB72F970FB6F894DEBF0FBEF3
:1021F000CDBF80EB97E065E047E020E20FE70E946B
:10220000C41200E27E010894E11CF11C7FE0A72EBD
:10221000B12CAC0EBD1E60E9C62E61E0D62EF701D2
:1022200000830F5F07FD00E23196EA15FB05C1F759
:102230001F86C7010E944A1480916601882391F08D
:10224000109266012F960FB6F894DEBF0FBECDBF79
:10225000CF91DF910F91FF90EF90DF90CF90BF90E3
:10226000AF90089580E197E2F6013197F1F7019779
:10227000D9F7D5CF0F931F93CF93DF9380E999E0E0
:102280006FE045E12EE209E30E9454091EE28091CD
:102290006A03181B00E0C0E9D1E016C08091660116
:1022A0008823D1F40E94D10680E0602F46E551E0FA
:1022B0000E94820B0E94390780E293E0FE01319771
:1022C000F1F70197D9F70F5F011740F3012F1DC0F8
:1022D00080916601882339F010926601DF91CF91D9
:1022E0001F910F9108950E94D10680E0602F4AE56A
:1022F00051E00E94820B0E94390780E293E0FE01C8
:102300003197F1F70197D9F70150002309F7DCCF96
:102310008F929F92AF92BF92CF92DF92EF920F93E4
:10232000DF93CF93CDB7DEB728970FB6F894DEBF13
:102330000FBECDBF19821A821B821C821D821E8293
:102340001F821886CC24DD245E010894A11CB11CD8
:10235000FEE58F2EF1E09F2E0E94D10688E496E0E4
:102360006CE043E120E309E3E2E0EE2E0E9466091F
:1023700000D000D000D0EDB7FEB73196ADB7BEB7F4
:102380001296BC92AE92119793828282D582C482B9
:102390000E9433168DB79EB706960FB6F8949EBF6F
:1023A0000FBE8DBF80E060E0A5010E94820B0E94FD
:1023B00039070894C11CD11C80916601882361F201
:1023C0001092660128960FB6F894DEBF0FBECDBFFF
:1023D000CF91DF910F91EF90DF90CF90BF90AF90B2
:1023E0009F908F9008958F929F92AF92BF92DF92AD
:1023F000EF92FF920F931F93DF93CF93CDB7DEB78A
:1024000028970FB6F894DEBF0FBECDBF19821A828F
:102410001B821C821D821E821F821886DD245E01A3
:102420000894A11CB11C1EE5812E11E0912E0E9482
:10243000D10680E999E06FE045E12EE209E30E94D0
:102440005409ED2CFF2400D000D000D0EDB7FEB72A
:102450003196ADB7BEB71296BC92AE9211979382E9
:102460008282F582E4820E9433168DB79EB706966B
:102470000FB6F8949EBF0FBE8DBF80E060E0A5014F
:102480000E94820B8701000F111F000F111F8AE0AD
:1024900066E24EE126E00E942B09EE0CFF1C86E46A
:1024A00060E048E02EE10E2D0E94E8080E94390706
:1024B000D39480916601882309F4B9CF1092660104
:1024C00028960FB6F894DEBF0FBECDBFCF91DF9137
:1024D0001F910F91FF90EF90DF90BF90AF909F9072
:1024E0008F900895CF92DF92EF92FF920F931F93F8
:1024F000CF93DF9300E4C02E0FE1D02EC0EADFE0DF
:102500000E94E4060E941A1664E570E00E94A2157B
:10251000E82E0E941A1660E370E00E94A215F82EC1
:102520000E941A1662E370E00E94A215082F10E0C4
:102530008E2D6F2D412F21E00E94640C0E943907DF
:10254000C6010197F1F71F5F011790F710E08E2D7C
:102550006F2D412F20E00E94640C0E943907CE01AC
:102560000197F1F71F5F011790F7809166018823AB
:1025700039F210926601DF91CF911F910F91FF9078
:10258000EF90DF90CF9008950F939093680380931E
:1025900067036093690340936A0320936B0300937E
:1025A0006C0310926D030F910895BF92CF92DF924A
:1025B000EF92FF920F931F93CF93DF93F82EE62EA7
:1025C0005FE2561708F45DC08091690390E08F0DBB
:1025D000911D843591050CF054C080916A038830B8
:1025E00008F04FC080916D03882309F04AC08091A4
:1025F0006B03481720F080916C03841708F44EE2B7
:1026000000E0C42EDD242FC080916B039601281BAF
:102610003109842F90E0AC01249FC001259F900DCB
:10262000349F900D1124800F911DE0916703F0916C
:102630006803E80FF91FE49110E0CE2FD0E00EC040
:10264000612F6E0DAE01012E02C0559547950A947B
:10265000E2F741708B2D0E94250C1F5F80916A0369
:10266000181770F30F5FB02EBF0C40916903041769
:1026700058F24F0D20916A032E0D8F2D6E2D0E9462
:102680005306DF91CF911F910F91FF90EF90DF9054
:10269000CF90BF9008950F931F93CF93DF93082F90
:1026A000262F142F60916A03683008F06AC0809169
:1026B0006B03481720F080916C03841708F41EE226
:1026C000C22FD0E0E62FF0E0319680E390E0BF012A
:1026D0000E94A215C617D7070CF053C0409169039A
:1026E000842F90E0800F911D843591050CF049C036
:1026F000CE9FB001CF9F700DDE9F700D1124400F53
:102700002196CE9F9001CF9F300DDE9F300D11247A
:102710002197802F0E94530684E590E0C89FD00146
:10272000C99FB00DD89FB00D112450E0612F70E00B
:1027300022C080916B039B01281B3109892F90E0F7
:10274000FC012E9FC0012F9F900D3E9F900D1124E4
:10275000850F911DE0916703F0916803E80FF91F61
:102760008491E0916303F0916403EA0FFB1FE40F8F
:10277000F11D80835F5F452F400F909169035917CA
:10278000C0F2DF91CF911F910F9108950F931F9386
:10279000CF93DF93182F062FEA0180916A038830C8
:1027A00020F5FE01219644914423F9F0812F602FFA
:1027B0000E944B13809169038F5F180F815090E046
:1027C000810F911D8435910514F00F5F10E0202FCB
:1027D00030E060916A0370E06F5F7F4F80E390E0CC
:1027E0000E94A21526173707E4F2DF91CF911F91BF
:1027F0000F9108950F931F93CF93DF93182F062FF8
:10280000EA0180916A03883008F123C0812F602F8C
:102810000E944B13809169038F5F180F815090E0E5
:10282000810F911D8435910514F00F5F10E0202F6A
:1028300030E060916A0370E06F5F7F4F80E390E06B
:102840000E94A2152617370724F4219648814423B5
:10285000E9F6DF91CF911F910F910895682F70E0F5
:1028600083E0660F771F8A95E1F780E043E528E073
:102870000E94F90B08950F931F938C010E94A006EC
:1028800080E065E0A8010E94C6130E9439071F91ED
:102890000F9108950F931F938C010E94A00680E072
:1028A00065E0A8010E94FA130E9439071F910F9159
:1028B00008956CD008F481E0089594D088F09F5773
:1028C00090F0B92F9927B751A0F0D1F0660F771F7C
:1028D000881F991F1AF0BA95C9F712C0B13081F05C
:1028E0009BD0B1E0089598C0672F782F8827B85FF4
:1028F00039F0B93FCCF3869577956795B395D9F7BD
:102900003EF490958095709561957F4F8F4F9F4FC6
:102910000895E89409C097FB3EF4909580957095D2
:1029200061957F4F8F4F9F4F9923A9F0F92F96E91B
:10293000BB279395F695879577956795B795F11190
:10294000F8CFFAF4BB0F11F460FF1BC06F5F7F4F2D
:102950008F4F9F4F16C0882311F096E911C077233F
:1029600021F09EE8872F762F05C0662371F096E848
:10297000862F70E060E02AF09A95660F771F881F17
:10298000DAF7880F9695879597F90895990F0008BB
:10299000550FAA0BE0E8FEEF16161706E807F90731
:1029A000C0F012161306E407F50798F0621B730BCC
:1029B000840B950B39F40A2661F0232B242B252B4D
:1029C00021F408950A2609F4A140A6958FEF811DF0
:1029D000811D089557FD9058440F551F59F05F3FD2
:1029E00071F04795880F97FB991F61F09F3F79F031
:1029F00087950895121613061406551FF2CF4695B3
:102A0000F1DF08C0161617061806991FF1CF869534
:102A10007105610508940895E894BB276627772718
:102A2000CB0197F90895B2DF08F48FEF08950BD02A
:102A300078C069D028F06ED018F0952309F05AC0FC
:102A40005FC01124EACFC6DFA0F3959FD1F3950FA5
:102A500050E0551F629FF001729FBB27F00DB11D22
:102A6000639FAA27F00DB11DAA1F649F6627B00DB2
:102A7000A11D661F829F2227B00DA11D621F739F9B
:102A8000B00DA11D621F839FA00D611D221F749FA9
:102A90003327A00D611D231F849F600D211D822FF0
:102AA000762F6A2F11249F5750408AF0E1F0882337
:102AB0004AF0EE0FFF1FBB1F661F771F881F915044
:102AC0005040A9F79E3F510570F014C0A6CF5F3F5C
:102AD000ECF3983EDCF3869577956795B795F79577
:102AE000E7959F5FC1F7FE2B880F911D96958795FF
:102AF00097F9089597F99F6780E870E060E008957E
:102B00009FEF80EC089500240A9416161706180605
:102B10000906089500240A941216130614060506E1
:102B20000895092E0394000C11F4882352F0BB0F72
:102B300040F4BF2B11F460FF04C06F5F7F4F8F4FD5
:102B40009F4F089597FB092E07260AD077FD04D0E2
:102B50000CD006D000201AF4709561957F4F08952F
:102B6000F6F7909581959F4F0895AA1BBB1B51E1E5
:102B700007C0AA1FBB1FA617B70710F0A61BB70BED
:102B8000881F991F5A95A9F780959095BC01CD0192
:102B90000895A0E0B0E0EFECF5E10C941619EC011B
:102BA000A880B980CA80DB80A114B104C104D1041B
:102BB00041F484E2A82E89EDB82E8BE5C82E87E07B
:102BC000D82EC601B5012DE133EF41E050E00E945F
:102BD000F31827EA31E440E050E00E94D4187B016A
:102BE0008C01C601B5012DE133EF41E050E00E94B8
:102BF000F318CA01B9012CEE34EF4FEF5FEF0E94DA
:102C0000D4186E0D7F1D801F911F97FF04C0615067
:102C1000704080409048688379838A839B839B01BE
:102C20003F77C901CDB7DEB7EAE00C9432190E94B4
:102C3000C915089581E691E00E94C9150895A0E0A4
:102C4000B0E08093610190936201A0936301B0931F
:102C500064010895FB01DC0102C005900D92415012
:102C60005040D8F70895AEE0B0E0E9E3F6E10C9407
:102C70001C190D891E8986E08C831A8309838FEFC6
:102C80009FE79E838D839E01275E3F4FCE01019675
:102C90006F89788DA9010E9457162F813885020F00
:102CA000131FF80110822E96E4E00C943819ABE063
:102CB000B0E0EDE5F6E10C940E193C012B015A0150
:102CC000FC0117821682838181FD03C06FEF7FEFC5
:102CD000C6C19AE0892E1E010894211C311CF30103
:102CE0002381F20123FD859123FF81912F01882308
:102CF00009F4B2C1853239F423FD859123FF819116
:102D00002F01853229F490E0B3010E944A18E7CFE1
:102D1000982FFF24EE249924FFE1FF15D0F09B3279
:102D200069F09C3228F4903259F0933291F40EC03D
:102D30009D3249F0903369F441E024C052E0F52A15
:102D400084E0F82A28C098E0F92A25C0E0E1FE2AAC
:102D500022C0F7FC29C0892F80538A3070F4F6FE18
:102D600005C0989C902C1124980E15C0E89CE02C6E
:102D70001124E80EF0E2FF2A0EC09E3229F4F6FC80
:102D80006BC140E4F42A07C09C3619F450E8F52AD8
:102D900002C0983649F4F20123FD959123FF9191E9
:102DA0002F01992309F0B8CF892F8554833018F06B
:102DB0008052833038F444E050E0A40EB51E5FE347
:102DC00059830FC0933631F0933779F0933509F07A
:102DD00056C020C0F5018081898342E050E0A40EF6
:102DE000B51E610101E010E012C0F501C080D18084
:102DF000F6FC03C06FEF7FEF02C0692D70E042E088
:102E000050E0A40EB51EC6010E943F188C015FE77A
:102E1000F52214C0F501C080D180F6FC03C06FEF2D
:102E20007FEF02C0692D70E042E050E0A40EB51EB5
:102E3000C6010E9434188C0150E8F52AF3FE07C041
:102E40001AC080E290E0B3010E944A18EA948E2DE5
:102E500090E008171907A8F30EC0F601F7FC85915A
:102E6000F7FE81916F0190E0B3010E944A18E110D2
:102E7000EA94015010400115110579F7EAC0943623
:102E800011F0993669F5F7FE08C0F501208131810E
:102E90004281538184E090E00AC0F50180819181F4
:102EA0009C01442737FD4095542F82E090E0A80E06
:102EB000B91E9FE6F92257FF09C0509540953095FD
:102EC00021953F4F4F4F5F4FE0E8FE2ACA01B901FD
:102ED000A1012AE030E00E947618D82ED21840C016
:102EE000953729F41F2D1F7E2AE030E01DC01F2DCD
:102EF000197F9F3661F0903720F4983509F0ACC007
:102F00000FC0903739F0983709F0A6C004C028E008
:102F100030E00AC0106114FD146020E130E004C00C
:102F200014FD166020E132E017FF08C0F501608152
:102F300071818281938144E050E008C0F501808175
:102F40009181BC0180E090E042E050E0A40EB51E0B
:102F5000A1010E947618D82ED2188FE7F82EF12200
:102F6000F6FE0BC05EEFF522D91438F4F4FE07C06C
:102F7000F2FC05C08FEEF82202C01D2D01C0192DF4
:102F8000F4FE0DC0FE01ED0DF11D8081803319F4BA
:102F900099EEF92208C01F5FF2FE05C003C08F2D15
:102FA000867809F01F5F0F2DF3FC14C0F0FE0FC0F0
:102FB0001E1510F09D2C0BC09D2C9E0C911A1E2DE1
:102FC00006C080E290E0B3010E944A181F5F1E1500
:102FD000C0F304C01E1510F4E11A01C0EE2404FF72
:102FE0000FC080E390E0B3010E944A1802FF1DC0A9
:102FF00001FD03C088E790E00EC088E590E00BC0BB
:10300000802F867891F001FF02C08BE201C080E240
:10301000F7FC8DE290E0B3010E944A1806C080E3FD
:1030200090E0B3010E944A189A94D914C0F3DA943C
:10303000F101ED0DF11D808190E0B3010E944A186D
:10304000DD20A9F706C080E290E0B3010E944A1893
:10305000EA94EE20C1F743CEF30166817781CB017C
:103060002B96E2E10C942A19FC0105906150704006
:103070000110D8F7809590958E0F9F1F0895FC0141
:103080006150704001900110D8F7809590958E0F97
:103090009F1F08950F931F93CF93DF938C01EB0134
:1030A0008B8181FF1BC082FF0DC02E813F818C81EF
:1030B0009D812817390764F4E881F9810193F98328
:1030C000E88306C0E885F985802F0995892B31F4BE
:1030D0008E819F8101969F838E8302C00FEF1FEF29
:1030E000C801DF91CF911F910F910895FA01AA278E
:1030F000283051F1203181F1E8946F936E7F6E5F3B
:103100007F4F8F4F9F4FAF4FB1E03ED0B4E03CD0E8
:10311000670F781F891F9A1FA11D680F791F8A1FCB
:10312000911DA11D6A0F711D811D911DA11D20D032
:1031300009F468943F912AE0269F11243019305DEC
:103140003193DEF6CF010895462F4770405D4193DD
:10315000B3E00FD0C9F7F6CF462F4F70405D4A332A
:1031600018F0495D31FD4052419302D0A9F7EACFF2
:10317000B4E0A6959795879577956795BA95C9F721
:1031800000976105710508959B01AC010A2E069414
:103190005795479537952795BA95C9F7620F731FCD
:1031A000841F951FA01D0895629FD001739FF00199
:1031B000829FE00DF11D649FE00DF11D929FF00DC7
:1031C000839FF00D749FF00D659FF00D9927729FFE
:1031D000B00DE11DF91F639FB00DE11DF91FBD0189
:1031E000CF011124089597FB092E05260ED057FD17
:1031F00004D04BD00AD0001C38F45095409530953F
:1032000021953F4F4F4F5F4F0895F6F7909580956A
:10321000709561957F4F8F4F9F4F08952F923F92EA
:103220004F925F926F927F928F929F92AF92BF92D6
:10323000CF92DF92EF92FF920F931F93CF93DF9382
:10324000CDB7DEB7CA1BDB0B0FB6F894DEBF0FBEDF
:10325000CDBF09942A88398848885F846E847D842C
:103260008C849B84AA84B984C884DF80EE80FD802E
:103270000C811B81AA81B981CE0FD11D0FB6F894A4
:10328000DEBF0FBECDBFED010895A1E21A2EAA1B2D
:10329000BB1BFD010DC0AA1FBB1FEE1FFF1FA21706
:1032A000B307E407F50720F0A21BB30BE40BF50B03
:1032B000661F771F881F991F1A9469F7609570958C
:1032C000809590959B01AC01BD01CF010895F894C4
:0232D000FFCF2E
:1032D20048656C6C6F20576F726C642100524543D5
:1032E20054414E474C452044454D4F00676C636442
:1032F2005F647261775F7265637400676C63645FB9
:10330200647261775F726563745F746869636B008E
:10331200676C63645F647261775F726563745F7325
:103322006861646F770031323300343536002564CA
:0633320000010000000094
:00000001FF
